{
  "address": "0xDB330A773d97899B75A61C7F821CC366Cb0698d9",
  "abi": [
    {
      "inputs": [
        {
          "internalType": "address",
          "name": "implementation",
          "type": "address"
        },
        {
          "internalType": "contract IMarketFactory",
          "name": "marketFactory",
          "type": "address"
        },
        {
          "internalType": "contract IVerifierBase",
          "name": "nonceManager",
          "type": "address"
        }
      ],
      "stateMutability": "nonpayable",
      "type": "constructor"
    },
    {
      "inputs": [],
      "name": "ControllerGroupBalancedError",
      "type": "error"
    },
    {
      "inputs": [],
      "name": "ControllerInvalidRebalanceConfigError",
      "type": "error"
    },
    {
      "inputs": [],
      "name": "ControllerInvalidRebalanceGroupError",
      "type": "error"
    },
    {
      "inputs": [],
      "name": "ControllerInvalidRebalanceMarketsError",
      "type": "error"
    },
    {
      "inputs": [],
      "name": "ControllerInvalidRebalanceTargetsError",
      "type": "error"
    },
    {
      "inputs": [],
      "name": "ControllerInvalidSignerError",
      "type": "error"
    },
    {
      "inputs": [
        {
          "internalType": "contract IMarket",
          "name": "market",
          "type": "address"
        },
        {
          "internalType": "uint256",
          "name": "group",
          "type": "uint256"
        }
      ],
      "name": "ControllerMarketAlreadyInGroupError",
      "type": "error"
    },
    {
      "inputs": [],
      "name": "ControllerNotOperatorError",
      "type": "error"
    },
    {
      "inputs": [
        {
          "internalType": "contract IMarket",
          "name": "market",
          "type": "address"
        }
      ],
      "name": "ControllerUnsupportedMarketError",
      "type": "error"
    },
    {
      "inputs": [],
      "name": "FactoryNotInstanceError",
      "type": "error"
    },
    {
      "inputs": [
        {
          "internalType": "uint256",
          "name": "value",
          "type": "uint256"
        }
      ],
      "name": "Fixed6OverflowError",
      "type": "error"
    },
    {
      "inputs": [
        {
          "internalType": "uint256",
          "name": "version",
          "type": "uint256"
        }
      ],
      "name": "InitializableAlreadyInitializedError",
      "type": "error"
    },
    {
      "inputs": [],
      "name": "InitializableNotInitializingError",
      "type": "error"
    },
    {
      "inputs": [],
      "name": "InitializableZeroVersionError",
      "type": "error"
    },
    {
      "inputs": [],
      "name": "OwnableAlreadyInitializedError",
      "type": "error"
    },
    {
      "inputs": [
        {
          "internalType": "address",
          "name": "sender",
          "type": "address"
        }
      ],
      "name": "OwnableNotOwnerError",
      "type": "error"
    },
    {
      "inputs": [
        {
          "internalType": "address",
          "name": "sender",
          "type": "address"
        }
      ],
      "name": "OwnableNotPendingOwnerError",
      "type": "error"
    },
    {
      "inputs": [
        {
          "internalType": "address",
          "name": "sender",
          "type": "address"
        }
      ],
      "name": "PausableNotPauserError",
      "type": "error"
    },
    {
      "inputs": [],
      "name": "PausablePausedError",
      "type": "error"
    },
    {
      "inputs": [
        {
          "internalType": "int256",
          "name": "value",
          "type": "int256"
        }
      ],
      "name": "UFixed18UnderflowError",
      "type": "error"
    },
    {
      "anonymous": false,
      "inputs": [
        {
          "indexed": true,
          "internalType": "address",
          "name": "owner",
          "type": "address"
        },
        {
          "indexed": true,
          "internalType": "contract IAccount",
          "name": "account",
          "type": "address"
        }
      ],
      "name": "AccountDeployed",
      "type": "event"
    },
    {
      "anonymous": false,
      "inputs": [
        {
          "indexed": true,
          "internalType": "address",
          "name": "owner",
          "type": "address"
        },
        {
          "indexed": true,
          "internalType": "uint256",
          "name": "group",
          "type": "uint256"
        }
      ],
      "name": "GroupRebalanced",
      "type": "event"
    },
    {
      "anonymous": false,
      "inputs": [
        {
          "indexed": false,
          "internalType": "uint256",
          "name": "version",
          "type": "uint256"
        }
      ],
      "name": "Initialized",
      "type": "event"
    },
    {
      "anonymous": false,
      "inputs": [
        {
          "indexed": true,
          "internalType": "contract IInstance",
          "name": "instance",
          "type": "address"
        }
      ],
      "name": "InstanceRegistered",
      "type": "event"
    },
    {
      "anonymous": false,
      "inputs": [
        {
          "indexed": true,
          "internalType": "address",
          "name": "sender",
          "type": "address"
        },
        {
          "indexed": false,
          "internalType": "uint256",
          "name": "applicableGas",
          "type": "uint256"
        },
        {
          "indexed": false,
          "internalType": "uint256",
          "name": "applicableValue",
          "type": "uint256"
        },
        {
          "indexed": false,
          "internalType": "UFixed18",
          "name": "baseFee",
          "type": "uint256"
        },
        {
          "indexed": false,
          "internalType": "UFixed18",
          "name": "calldataFee",
          "type": "uint256"
        },
        {
          "indexed": false,
          "internalType": "UFixed18",
          "name": "keeperFee",
          "type": "uint256"
        }
      ],
      "name": "KeeperCall",
      "type": "event"
    },
    {
      "anonymous": false,
      "inputs": [
        {
          "indexed": true,
          "internalType": "address",
          "name": "newOwner",
          "type": "address"
        }
      ],
      "name": "OwnerUpdated",
      "type": "event"
    },
    {
      "anonymous": false,
      "inputs": [],
      "name": "Paused",
      "type": "event"
    },
    {
      "anonymous": false,
      "inputs": [
        {
          "indexed": true,
          "internalType": "address",
          "name": "newPauser",
          "type": "address"
        }
      ],
      "name": "PauserUpdated",
      "type": "event"
    },
    {
      "anonymous": false,
      "inputs": [
        {
          "indexed": true,
          "internalType": "address",
          "name": "newPendingOwner",
          "type": "address"
        }
      ],
      "name": "PendingOwnerUpdated",
      "type": "event"
    },
    {
      "anonymous": false,
      "inputs": [
        {
          "indexed": true,
          "internalType": "address",
          "name": "owner",
          "type": "address"
        },
        {
          "indexed": true,
          "internalType": "uint256",
          "name": "group",
          "type": "uint256"
        },
        {
          "indexed": false,
          "internalType": "uint256",
          "name": "markets",
          "type": "uint256"
        }
      ],
      "name": "RebalanceGroupConfigured",
      "type": "event"
    },
    {
      "anonymous": false,
      "inputs": [
        {
          "indexed": true,
          "internalType": "address",
          "name": "owner",
          "type": "address"
        },
        {
          "indexed": true,
          "internalType": "uint256",
          "name": "group",
          "type": "uint256"
        },
        {
          "indexed": true,
          "internalType": "address",
          "name": "market",
          "type": "address"
        },
        {
          "components": [
            {
              "internalType": "UFixed6",
              "name": "target",
              "type": "uint256"
            },
            {
              "internalType": "UFixed6",
              "name": "threshold",
              "type": "uint256"
            }
          ],
          "indexed": false,
          "internalType": "struct RebalanceConfig",
          "name": "newConfig",
          "type": "tuple"
        }
      ],
      "name": "RebalanceMarketConfigured",
      "type": "event"
    },
    {
      "anonymous": false,
      "inputs": [],
      "name": "Unpaused",
      "type": "event"
    },
    {
      "inputs": [],
      "name": "ARB_FIXED_OVERHEAD",
      "outputs": [
        {
          "internalType": "uint256",
          "name": "",
          "type": "uint256"
        }
      ],
      "stateMutability": "view",
      "type": "function"
    },
    {
      "inputs": [],
      "name": "ARB_GAS_MULTIPLIER",
      "outputs": [
        {
          "internalType": "uint256",
          "name": "",
          "type": "uint256"
        }
      ],
      "stateMutability": "view",
      "type": "function"
    },
    {
      "inputs": [],
      "name": "DSU",
      "outputs": [
        {
          "internalType": "Token18",
          "name": "",
          "type": "address"
        }
      ],
      "stateMutability": "view",
      "type": "function"
    },
    {
      "inputs": [],
      "name": "MAX_GROUPS_PER_OWNER",
      "outputs": [
        {
          "internalType": "uint256",
          "name": "",
          "type": "uint256"
        }
      ],
      "stateMutability": "view",
      "type": "function"
    },
    {
      "inputs": [],
      "name": "MAX_MARKETS_PER_GROUP",
      "outputs": [
        {
          "internalType": "uint256",
          "name": "",
          "type": "uint256"
        }
      ],
      "stateMutability": "view",
      "type": "function"
    },
    {
      "inputs": [],
      "name": "SALT",
      "outputs": [
        {
          "internalType": "bytes32",
          "name": "",
          "type": "bytes32"
        }
      ],
      "stateMutability": "view",
      "type": "function"
    },
    {
      "inputs": [],
      "name": "USDC",
      "outputs": [
        {
          "internalType": "Token6",
          "name": "",
          "type": "address"
        }
      ],
      "stateMutability": "view",
      "type": "function"
    },
    {
      "inputs": [],
      "name": "acceptOwner",
      "outputs": [],
      "stateMutability": "nonpayable",
      "type": "function"
    },
    {
      "inputs": [
        {
          "components": [
            {
              "internalType": "uint256",
              "name": "group",
              "type": "uint256"
            },
            {
              "internalType": "address[]",
              "name": "markets",
              "type": "address[]"
            },
            {
              "components": [
                {
                  "internalType": "UFixed6",
                  "name": "target",
                  "type": "uint256"
                },
                {
                  "internalType": "UFixed6",
                  "name": "threshold",
                  "type": "uint256"
                }
              ],
              "internalType": "struct RebalanceConfig[]",
              "name": "configs",
              "type": "tuple[]"
            },
            {
              "internalType": "UFixed6",
              "name": "maxFee",
              "type": "uint256"
            },
            {
              "components": [
                {
                  "internalType": "UFixed6",
                  "name": "maxFee",
                  "type": "uint256"
                },
                {
                  "components": [
                    {
                      "internalType": "address",
                      "name": "account",
                      "type": "address"
                    },
                    {
                      "internalType": "address",
                      "name": "signer",
                      "type": "address"
                    },
                    {
                      "internalType": "address",
                      "name": "domain",
                      "type": "address"
                    },
                    {
                      "internalType": "uint256",
                      "name": "nonce",
                      "type": "uint256"
                    },
                    {
                      "internalType": "uint256",
                      "name": "group",
                      "type": "uint256"
                    },
                    {
                      "internalType": "uint256",
                      "name": "expiry",
                      "type": "uint256"
                    }
                  ],
                  "internalType": "struct Common",
                  "name": "common",
                  "type": "tuple"
                }
              ],
              "internalType": "struct Action",
              "name": "action",
              "type": "tuple"
            }
          ],
          "internalType": "struct RebalanceConfigChange",
          "name": "configChange",
          "type": "tuple"
        },
        {
          "internalType": "bytes",
          "name": "signature",
          "type": "bytes"
        }
      ],
      "name": "changeRebalanceConfigWithSignature",
      "outputs": [],
      "stateMutability": "nonpayable",
      "type": "function"
    },
    {
      "inputs": [
        {
          "internalType": "address",
          "name": "owner",
          "type": "address"
        },
        {
          "internalType": "UFixed6",
          "name": "amount",
          "type": "uint256"
        }
      ],
      "name": "chargeFee",
      "outputs": [],
      "stateMutability": "nonpayable",
      "type": "function"
    },
    {
      "inputs": [
        {
          "internalType": "address",
          "name": "owner",
          "type": "address"
        },
        {
          "internalType": "uint256",
          "name": "group",
          "type": "uint256"
        }
      ],
      "name": "checkGroup",
      "outputs": [
        {
          "internalType": "Fixed6",
          "name": "groupCollateral",
          "type": "int256"
        },
        {
          "internalType": "bool",
          "name": "canRebalance",
          "type": "bool"
        },
        {
          "internalType": "Fixed6[]",
          "name": "imbalances",
          "type": "int256[]"
        }
      ],
      "stateMutability": "view",
      "type": "function"
    },
    {
      "inputs": [],
      "name": "deployAccount",
      "outputs": [
        {
          "internalType": "contract IAccount",
          "name": "",
          "type": "address"
        }
      ],
      "stateMutability": "nonpayable",
      "type": "function"
    },
    {
      "inputs": [
        {
          "components": [
            {
              "components": [
                {
                  "internalType": "UFixed6",
                  "name": "maxFee",
                  "type": "uint256"
                },
                {
                  "components": [
                    {
                      "internalType": "address",
                      "name": "account",
                      "type": "address"
                    },
                    {
                      "internalType": "address",
                      "name": "signer",
                      "type": "address"
                    },
                    {
                      "internalType": "address",
                      "name": "domain",
                      "type": "address"
                    },
                    {
                      "internalType": "uint256",
                      "name": "nonce",
                      "type": "uint256"
                    },
                    {
                      "internalType": "uint256",
                      "name": "group",
                      "type": "uint256"
                    },
                    {
                      "internalType": "uint256",
                      "name": "expiry",
                      "type": "uint256"
                    }
                  ],
                  "internalType": "struct Common",
                  "name": "common",
                  "type": "tuple"
                }
              ],
              "internalType": "struct Action",
              "name": "action",
              "type": "tuple"
            }
          ],
          "internalType": "struct DeployAccount",
          "name": "deployAccount_",
          "type": "tuple"
        },
        {
          "internalType": "bytes",
          "name": "signature",
          "type": "bytes"
        }
      ],
      "name": "deployAccountWithSignature",
      "outputs": [],
      "stateMutability": "nonpayable",
      "type": "function"
    },
    {
      "inputs": [],
      "name": "ethTokenOracleFeed",
      "outputs": [
        {
          "internalType": "contract AggregatorV3Interface",
          "name": "",
          "type": "address"
        }
      ],
      "stateMutability": "view",
      "type": "function"
    },
    {
      "inputs": [
        {
          "internalType": "address",
          "name": "owner",
          "type": "address"
        }
      ],
      "name": "getAccountAddress",
      "outputs": [
        {
          "internalType": "address",
          "name": "",
          "type": "address"
        }
      ],
      "stateMutability": "view",
      "type": "function"
    },
    {
      "inputs": [
        {
          "internalType": "address",
          "name": "",
          "type": "address"
        },
        {
          "internalType": "uint256",
          "name": "",
          "type": "uint256"
        },
        {
          "internalType": "uint256",
          "name": "",
          "type": "uint256"
        }
      ],
      "name": "groupToMarkets",
      "outputs": [
        {
          "internalType": "contract IMarket",
          "name": "",
          "type": "address"
        }
      ],
      "stateMutability": "view",
      "type": "function"
    },
    {
      "inputs": [
        {
          "internalType": "address",
          "name": "",
          "type": "address"
        },
        {
          "internalType": "uint256",
          "name": "",
          "type": "uint256"
        }
      ],
      "name": "groupToMaxRebalanceFee",
      "outputs": [
        {
          "internalType": "UFixed6",
          "name": "",
          "type": "uint256"
        }
      ],
      "stateMutability": "view",
      "type": "function"
    },
    {
      "inputs": [],
      "name": "implementation",
      "outputs": [
        {
          "internalType": "address",
          "name": "",
          "type": "address"
        }
      ],
      "stateMutability": "view",
      "type": "function"
    },
    {
      "inputs": [
        {
          "internalType": "contract IAccountVerifier",
          "name": "verifier_",
          "type": "address"
        }
      ],
      "name": "initialize",
      "outputs": [],
      "stateMutability": "nonpayable",
      "type": "function"
    },
    {
      "inputs": [
        {
          "internalType": "contract IAccountVerifier",
          "name": "verifier_",
          "type": "address"
        },
        {
          "internalType": "contract AggregatorV3Interface",
          "name": "chainlinkFeed_",
          "type": "address"
        },
        {
          "components": [
            {
              "internalType": "UFixed18",
              "name": "multiplierBase",
              "type": "uint256"
            },
            {
              "internalType": "uint256",
              "name": "bufferBase",
              "type": "uint256"
            },
            {
              "internalType": "UFixed18",
              "name": "multiplierCalldata",
              "type": "uint256"
            },
            {
              "internalType": "uint256",
              "name": "bufferCalldata",
              "type": "uint256"
            }
          ],
          "internalType": "struct IKept.KeepConfig",
          "name": "keepConfig_",
          "type": "tuple"
        },
        {
          "components": [
            {
              "internalType": "UFixed18",
              "name": "multiplierBase",
              "type": "uint256"
            },
            {
              "internalType": "uint256",
              "name": "bufferBase",
              "type": "uint256"
            },
            {
              "internalType": "UFixed18",
              "name": "multiplierCalldata",
              "type": "uint256"
            },
            {
              "internalType": "uint256",
              "name": "bufferCalldata",
              "type": "uint256"
            }
          ],
          "internalType": "struct IKept.KeepConfig",
          "name": "keepConfigBuffered_",
          "type": "tuple"
        },
        {
          "components": [
            {
              "internalType": "UFixed18",
              "name": "multiplierBase",
              "type": "uint256"
            },
            {
              "internalType": "uint256",
              "name": "bufferBase",
              "type": "uint256"
            },
            {
              "internalType": "UFixed18",
              "name": "multiplierCalldata",
              "type": "uint256"
            },
            {
              "internalType": "uint256",
              "name": "bufferCalldata",
              "type": "uint256"
            }
          ],
          "internalType": "struct IKept.KeepConfig",
          "name": "keepConfigWithdrawal_",
          "type": "tuple"
        }
      ],
      "name": "initialize",
      "outputs": [],
      "stateMutability": "nonpayable",
      "type": "function"
    },
    {
      "inputs": [
        {
          "internalType": "contract IInstance",
          "name": "instance",
          "type": "address"
        }
      ],
      "name": "instances",
      "outputs": [
        {
          "internalType": "bool",
          "name": "",
          "type": "bool"
        }
      ],
      "stateMutability": "view",
      "type": "function"
    },
    {
      "inputs": [],
      "name": "keepConfig",
      "outputs": [
        {
          "internalType": "UFixed18",
          "name": "multiplierBase",
          "type": "uint256"
        },
        {
          "internalType": "uint256",
          "name": "bufferBase",
          "type": "uint256"
        },
        {
          "internalType": "UFixed18",
          "name": "multiplierCalldata",
          "type": "uint256"
        },
        {
          "internalType": "uint256",
          "name": "bufferCalldata",
          "type": "uint256"
        }
      ],
      "stateMutability": "view",
      "type": "function"
    },
    {
      "inputs": [],
      "name": "keepConfigBuffered",
      "outputs": [
        {
          "internalType": "UFixed18",
          "name": "multiplierBase",
          "type": "uint256"
        },
        {
          "internalType": "uint256",
          "name": "bufferBase",
          "type": "uint256"
        },
        {
          "internalType": "UFixed18",
          "name": "multiplierCalldata",
          "type": "uint256"
        },
        {
          "internalType": "uint256",
          "name": "bufferCalldata",
          "type": "uint256"
        }
      ],
      "stateMutability": "view",
      "type": "function"
    },
    {
      "inputs": [],
      "name": "keepConfigWithdrawal",
      "outputs": [
        {
          "internalType": "UFixed18",
          "name": "multiplierBase",
          "type": "uint256"
        },
        {
          "internalType": "uint256",
          "name": "bufferBase",
          "type": "uint256"
        },
        {
          "internalType": "UFixed18",
          "name": "multiplierCalldata",
          "type": "uint256"
        },
        {
          "internalType": "uint256",
          "name": "bufferCalldata",
          "type": "uint256"
        }
      ],
      "stateMutability": "view",
      "type": "function"
    },
    {
      "inputs": [],
      "name": "keeperToken",
      "outputs": [
        {
          "internalType": "Token18",
          "name": "",
          "type": "address"
        }
      ],
      "stateMutability": "view",
      "type": "function"
    },
    {
      "inputs": [],
      "name": "marketFactory",
      "outputs": [
        {
          "internalType": "contract IMarketFactory",
          "name": "",
          "type": "address"
        }
      ],
      "stateMutability": "view",
      "type": "function"
    },
    {
      "inputs": [
        {
          "internalType": "address",
          "name": "",
          "type": "address"
        },
        {
          "internalType": "address",
          "name": "",
          "type": "address"
        }
      ],
      "name": "marketToGroup",
      "outputs": [
        {
          "internalType": "uint256",
          "name": "",
          "type": "uint256"
        }
      ],
      "stateMutability": "view",
      "type": "function"
    },
    {
      "inputs": [
        {
          "components": [
            {
              "internalType": "address",
              "name": "market",
              "type": "address"
            },
            {
              "internalType": "Fixed6",
              "name": "amount",
              "type": "int256"
            },
            {
              "components": [
                {
                  "internalType": "UFixed6",
                  "name": "maxFee",
                  "type": "uint256"
                },
                {
                  "components": [
                    {
                      "internalType": "address",
                      "name": "account",
                      "type": "address"
                    },
                    {
                      "internalType": "address",
                      "name": "signer",
                      "type": "address"
                    },
                    {
                      "internalType": "address",
                      "name": "domain",
                      "type": "address"
                    },
                    {
                      "internalType": "uint256",
                      "name": "nonce",
                      "type": "uint256"
                    },
                    {
                      "internalType": "uint256",
                      "name": "group",
                      "type": "uint256"
                    },
                    {
                      "internalType": "uint256",
                      "name": "expiry",
                      "type": "uint256"
                    }
                  ],
                  "internalType": "struct Common",
                  "name": "common",
                  "type": "tuple"
                }
              ],
              "internalType": "struct Action",
              "name": "action",
              "type": "tuple"
            }
          ],
          "internalType": "struct MarketTransfer",
          "name": "marketTransfer",
          "type": "tuple"
        },
        {
          "internalType": "bytes",
          "name": "signature",
          "type": "bytes"
        }
      ],
      "name": "marketTransferWithSignature",
      "outputs": [],
      "stateMutability": "nonpayable",
      "type": "function"
    },
    {
      "inputs": [],
      "name": "nonceManager",
      "outputs": [
        {
          "internalType": "contract IVerifierBase",
          "name": "",
          "type": "address"
        }
      ],
      "stateMutability": "view",
      "type": "function"
    },
    {
      "inputs": [],
      "name": "owner",
      "outputs": [
        {
          "internalType": "address",
          "name": "",
          "type": "address"
        }
      ],
      "stateMutability": "view",
      "type": "function"
    },
    {
      "inputs": [],
      "name": "pause",
      "outputs": [],
      "stateMutability": "nonpayable",
      "type": "function"
    },
    {
      "inputs": [],
      "name": "paused",
      "outputs": [
        {
          "internalType": "bool",
          "name": "",
          "type": "bool"
        }
      ],
      "stateMutability": "view",
      "type": "function"
    },
    {
      "inputs": [],
      "name": "pauser",
      "outputs": [
        {
          "internalType": "address",
          "name": "",
          "type": "address"
        }
      ],
      "stateMutability": "view",
      "type": "function"
    },
    {
      "inputs": [],
      "name": "pendingOwner",
      "outputs": [
        {
          "internalType": "address",
          "name": "",
          "type": "address"
        }
      ],
      "stateMutability": "view",
      "type": "function"
    },
    {
      "inputs": [
        {
          "internalType": "address",
          "name": "owner",
          "type": "address"
        },
        {
          "internalType": "uint256",
          "name": "group",
          "type": "uint256"
        },
        {
          "internalType": "address",
          "name": "market",
          "type": "address"
        }
      ],
      "name": "rebalanceConfigs",
      "outputs": [
        {
          "components": [
            {
              "internalType": "UFixed6",
              "name": "target",
              "type": "uint256"
            },
            {
              "internalType": "UFixed6",
              "name": "threshold",
              "type": "uint256"
            }
          ],
          "internalType": "struct RebalanceConfig",
          "name": "",
          "type": "tuple"
        }
      ],
      "stateMutability": "view",
      "type": "function"
    },
    {
      "inputs": [
        {
          "internalType": "address",
          "name": "owner",
          "type": "address"
        },
        {
          "internalType": "uint256",
          "name": "group",
          "type": "uint256"
        }
      ],
      "name": "rebalanceGroup",
      "outputs": [],
      "stateMutability": "nonpayable",
      "type": "function"
    },
    {
      "inputs": [
        {
          "internalType": "address",
          "name": "owner",
          "type": "address"
        },
        {
          "internalType": "uint256",
          "name": "group",
          "type": "uint256"
        }
      ],
      "name": "rebalanceGroupMarkets",
      "outputs": [
        {
          "internalType": "contract IMarket[]",
          "name": "markets",
          "type": "address[]"
        }
      ],
      "stateMutability": "view",
      "type": "function"
    },
    {
      "inputs": [
        {
          "components": [
            {
              "components": [
                {
                  "components": [
                    {
                      "internalType": "address",
                      "name": "accessor",
                      "type": "address"
                    },
                    {
                      "internalType": "bool",
                      "name": "approved",
                      "type": "bool"
                    }
                  ],
                  "internalType": "struct AccessUpdate[]",
                  "name": "operators",
                  "type": "tuple[]"
                },
                {
                  "components": [
                    {
                      "internalType": "address",
                      "name": "accessor",
                      "type": "address"
                    },
                    {
                      "internalType": "bool",
                      "name": "approved",
                      "type": "bool"
                    }
                  ],
                  "internalType": "struct AccessUpdate[]",
                  "name": "signers",
                  "type": "tuple[]"
                },
                {
                  "components": [
                    {
                      "internalType": "address",
                      "name": "account",
                      "type": "address"
                    },
                    {
                      "internalType": "address",
                      "name": "signer",
                      "type": "address"
                    },
                    {
                      "internalType": "address",
                      "name": "domain",
                      "type": "address"
                    },
                    {
                      "internalType": "uint256",
                      "name": "nonce",
                      "type": "uint256"
                    },
                    {
                      "internalType": "uint256",
                      "name": "group",
                      "type": "uint256"
                    },
                    {
                      "internalType": "uint256",
                      "name": "expiry",
                      "type": "uint256"
                    }
                  ],
                  "internalType": "struct Common",
                  "name": "common",
                  "type": "tuple"
                }
              ],
              "internalType": "struct AccessUpdateBatch",
              "name": "accessUpdateBatch",
              "type": "tuple"
            },
            {
              "components": [
                {
                  "internalType": "UFixed6",
                  "name": "maxFee",
                  "type": "uint256"
                },
                {
                  "components": [
                    {
                      "internalType": "address",
                      "name": "account",
                      "type": "address"
                    },
                    {
                      "internalType": "address",
                      "name": "signer",
                      "type": "address"
                    },
                    {
                      "internalType": "address",
                      "name": "domain",
                      "type": "address"
                    },
                    {
                      "internalType": "uint256",
                      "name": "nonce",
                      "type": "uint256"
                    },
                    {
                      "internalType": "uint256",
                      "name": "group",
                      "type": "uint256"
                    },
                    {
                      "internalType": "uint256",
                      "name": "expiry",
                      "type": "uint256"
                    }
                  ],
                  "internalType": "struct Common",
                  "name": "common",
                  "type": "tuple"
                }
              ],
              "internalType": "struct Action",
              "name": "action",
              "type": "tuple"
            }
          ],
          "internalType": "struct RelayedAccessUpdateBatch",
          "name": "message",
          "type": "tuple"
        },
        {
          "internalType": "bytes",
          "name": "outerSignature",
          "type": "bytes"
        },
        {
          "internalType": "bytes",
          "name": "innerSignature",
          "type": "bytes"
        }
      ],
      "name": "relayAccessUpdateBatch",
      "outputs": [],
      "stateMutability": "nonpayable",
      "type": "function"
    },
    {
      "inputs": [
        {
          "components": [
            {
              "components": [
                {
                  "internalType": "uint256",
                  "name": "group",
                  "type": "uint256"
                },
                {
                  "components": [
                    {
                      "internalType": "address",
                      "name": "account",
                      "type": "address"
                    },
                    {
                      "internalType": "address",
                      "name": "signer",
                      "type": "address"
                    },
                    {
                      "internalType": "address",
                      "name": "domain",
                      "type": "address"
                    },
                    {
                      "internalType": "uint256",
                      "name": "nonce",
                      "type": "uint256"
                    },
                    {
                      "internalType": "uint256",
                      "name": "group",
                      "type": "uint256"
                    },
                    {
                      "internalType": "uint256",
                      "name": "expiry",
                      "type": "uint256"
                    }
                  ],
                  "internalType": "struct Common",
                  "name": "common",
                  "type": "tuple"
                }
              ],
              "internalType": "struct GroupCancellation",
              "name": "groupCancellation",
              "type": "tuple"
            },
            {
              "components": [
                {
                  "internalType": "UFixed6",
                  "name": "maxFee",
                  "type": "uint256"
                },
                {
                  "components": [
                    {
                      "internalType": "address",
                      "name": "account",
                      "type": "address"
                    },
                    {
                      "internalType": "address",
                      "name": "signer",
                      "type": "address"
                    },
                    {
                      "internalType": "address",
                      "name": "domain",
                      "type": "address"
                    },
                    {
                      "internalType": "uint256",
                      "name": "nonce",
                      "type": "uint256"
                    },
                    {
                      "internalType": "uint256",
                      "name": "group",
                      "type": "uint256"
                    },
                    {
                      "internalType": "uint256",
                      "name": "expiry",
                      "type": "uint256"
                    }
                  ],
                  "internalType": "struct Common",
                  "name": "common",
                  "type": "tuple"
                }
              ],
              "internalType": "struct Action",
              "name": "action",
              "type": "tuple"
            }
          ],
          "internalType": "struct RelayedGroupCancellation",
          "name": "message",
          "type": "tuple"
        },
        {
          "internalType": "bytes",
          "name": "outerSignature",
          "type": "bytes"
        },
        {
          "internalType": "bytes",
          "name": "innerSignature",
          "type": "bytes"
        }
      ],
      "name": "relayGroupCancellation",
      "outputs": [],
      "stateMutability": "nonpayable",
      "type": "function"
    },
    {
      "inputs": [
        {
          "components": [
            {
              "components": [
                {
                  "internalType": "address",
                  "name": "account",
                  "type": "address"
                },
                {
                  "internalType": "address",
                  "name": "signer",
                  "type": "address"
                },
                {
                  "internalType": "address",
                  "name": "domain",
                  "type": "address"
                },
                {
                  "internalType": "uint256",
                  "name": "nonce",
                  "type": "uint256"
                },
                {
                  "internalType": "uint256",
                  "name": "group",
                  "type": "uint256"
                },
                {
                  "internalType": "uint256",
                  "name": "expiry",
                  "type": "uint256"
                }
              ],
              "internalType": "struct Common",
              "name": "nonceCancellation",
              "type": "tuple"
            },
            {
              "components": [
                {
                  "internalType": "UFixed6",
                  "name": "maxFee",
                  "type": "uint256"
                },
                {
                  "components": [
                    {
                      "internalType": "address",
                      "name": "account",
                      "type": "address"
                    },
                    {
                      "internalType": "address",
                      "name": "signer",
                      "type": "address"
                    },
                    {
                      "internalType": "address",
                      "name": "domain",
                      "type": "address"
                    },
                    {
                      "internalType": "uint256",
                      "name": "nonce",
                      "type": "uint256"
                    },
                    {
                      "internalType": "uint256",
                      "name": "group",
                      "type": "uint256"
                    },
                    {
                      "internalType": "uint256",
                      "name": "expiry",
                      "type": "uint256"
                    }
                  ],
                  "internalType": "struct Common",
                  "name": "common",
                  "type": "tuple"
                }
              ],
              "internalType": "struct Action",
              "name": "action",
              "type": "tuple"
            }
          ],
          "internalType": "struct RelayedNonceCancellation",
          "name": "message",
          "type": "tuple"
        },
        {
          "internalType": "bytes",
          "name": "outerSignature",
          "type": "bytes"
        },
        {
          "internalType": "bytes",
          "name": "innerSignature",
          "type": "bytes"
        }
      ],
      "name": "relayNonceCancellation",
      "outputs": [],
      "stateMutability": "nonpayable",
      "type": "function"
    },
    {
      "inputs": [
        {
          "components": [
            {
              "components": [
                {
                  "components": [
                    {
                      "internalType": "address",
                      "name": "accessor",
                      "type": "address"
                    },
                    {
                      "internalType": "bool",
                      "name": "approved",
                      "type": "bool"
                    }
                  ],
                  "internalType": "struct AccessUpdate",
                  "name": "access",
                  "type": "tuple"
                },
                {
                  "components": [
                    {
                      "internalType": "address",
                      "name": "account",
                      "type": "address"
                    },
                    {
                      "internalType": "address",
                      "name": "signer",
                      "type": "address"
                    },
                    {
                      "internalType": "address",
                      "name": "domain",
                      "type": "address"
                    },
                    {
                      "internalType": "uint256",
                      "name": "nonce",
                      "type": "uint256"
                    },
                    {
                      "internalType": "uint256",
                      "name": "group",
                      "type": "uint256"
                    },
                    {
                      "internalType": "uint256",
                      "name": "expiry",
                      "type": "uint256"
                    }
                  ],
                  "internalType": "struct Common",
                  "name": "common",
                  "type": "tuple"
                }
              ],
              "internalType": "struct OperatorUpdate",
              "name": "operatorUpdate",
              "type": "tuple"
            },
            {
              "components": [
                {
                  "internalType": "UFixed6",
                  "name": "maxFee",
                  "type": "uint256"
                },
                {
                  "components": [
                    {
                      "internalType": "address",
                      "name": "account",
                      "type": "address"
                    },
                    {
                      "internalType": "address",
                      "name": "signer",
                      "type": "address"
                    },
                    {
                      "internalType": "address",
                      "name": "domain",
                      "type": "address"
                    },
                    {
                      "internalType": "uint256",
                      "name": "nonce",
                      "type": "uint256"
                    },
                    {
                      "internalType": "uint256",
                      "name": "group",
                      "type": "uint256"
                    },
                    {
                      "internalType": "uint256",
                      "name": "expiry",
                      "type": "uint256"
                    }
                  ],
                  "internalType": "struct Common",
                  "name": "common",
                  "type": "tuple"
                }
              ],
              "internalType": "struct Action",
              "name": "action",
              "type": "tuple"
            }
          ],
          "internalType": "struct RelayedOperatorUpdate",
          "name": "message",
          "type": "tuple"
        },
        {
          "internalType": "bytes",
          "name": "outerSignature",
          "type": "bytes"
        },
        {
          "internalType": "bytes",
          "name": "innerSignature",
          "type": "bytes"
        }
      ],
      "name": "relayOperatorUpdate",
      "outputs": [],
      "stateMutability": "nonpayable",
      "type": "function"
    },
    {
      "inputs": [
        {
          "components": [
            {
              "components": [
                {
                  "components": [
                    {
                      "internalType": "address",
                      "name": "accessor",
                      "type": "address"
                    },
                    {
                      "internalType": "bool",
                      "name": "approved",
                      "type": "bool"
                    }
                  ],
                  "internalType": "struct AccessUpdate",
                  "name": "access",
                  "type": "tuple"
                },
                {
                  "components": [
                    {
                      "internalType": "address",
                      "name": "account",
                      "type": "address"
                    },
                    {
                      "internalType": "address",
                      "name": "signer",
                      "type": "address"
                    },
                    {
                      "internalType": "address",
                      "name": "domain",
                      "type": "address"
                    },
                    {
                      "internalType": "uint256",
                      "name": "nonce",
                      "type": "uint256"
                    },
                    {
                      "internalType": "uint256",
                      "name": "group",
                      "type": "uint256"
                    },
                    {
                      "internalType": "uint256",
                      "name": "expiry",
                      "type": "uint256"
                    }
                  ],
                  "internalType": "struct Common",
                  "name": "common",
                  "type": "tuple"
                }
              ],
              "internalType": "struct SignerUpdate",
              "name": "signerUpdate",
              "type": "tuple"
            },
            {
              "components": [
                {
                  "internalType": "UFixed6",
                  "name": "maxFee",
                  "type": "uint256"
                },
                {
                  "components": [
                    {
                      "internalType": "address",
                      "name": "account",
                      "type": "address"
                    },
                    {
                      "internalType": "address",
                      "name": "signer",
                      "type": "address"
                    },
                    {
                      "internalType": "address",
                      "name": "domain",
                      "type": "address"
                    },
                    {
                      "internalType": "uint256",
                      "name": "nonce",
                      "type": "uint256"
                    },
                    {
                      "internalType": "uint256",
                      "name": "group",
                      "type": "uint256"
                    },
                    {
                      "internalType": "uint256",
                      "name": "expiry",
                      "type": "uint256"
                    }
                  ],
                  "internalType": "struct Common",
                  "name": "common",
                  "type": "tuple"
                }
              ],
              "internalType": "struct Action",
              "name": "action",
              "type": "tuple"
            }
          ],
          "internalType": "struct RelayedSignerUpdate",
          "name": "message",
          "type": "tuple"
        },
        {
          "internalType": "bytes",
          "name": "outerSignature",
          "type": "bytes"
        },
        {
          "internalType": "bytes",
          "name": "innerSignature",
          "type": "bytes"
        }
      ],
      "name": "relaySignerUpdate",
      "outputs": [],
      "stateMutability": "nonpayable",
      "type": "function"
    },
    {
      "inputs": [
        {
          "components": [
            {
              "components": [
                {
                  "internalType": "Fixed6",
                  "name": "amount",
                  "type": "int256"
                },
                {
                  "internalType": "address",
                  "name": "referrer",
                  "type": "address"
                },
                {
                  "components": [
                    {
                      "internalType": "address",
                      "name": "account",
                      "type": "address"
                    },
                    {
                      "internalType": "address",
                      "name": "signer",
                      "type": "address"
                    },
                    {
                      "internalType": "address",
                      "name": "domain",
                      "type": "address"
                    },
                    {
                      "internalType": "uint256",
                      "name": "nonce",
                      "type": "uint256"
                    },
                    {
                      "internalType": "uint256",
                      "name": "group",
                      "type": "uint256"
                    },
                    {
                      "internalType": "uint256",
                      "name": "expiry",
                      "type": "uint256"
                    }
                  ],
                  "internalType": "struct Common",
                  "name": "common",
                  "type": "tuple"
                }
              ],
              "internalType": "struct Take",
              "name": "take",
              "type": "tuple"
            },
            {
              "components": [
                {
                  "internalType": "UFixed6",
                  "name": "maxFee",
                  "type": "uint256"
                },
                {
                  "components": [
                    {
                      "internalType": "address",
                      "name": "account",
                      "type": "address"
                    },
                    {
                      "internalType": "address",
                      "name": "signer",
                      "type": "address"
                    },
                    {
                      "internalType": "address",
                      "name": "domain",
                      "type": "address"
                    },
                    {
                      "internalType": "uint256",
                      "name": "nonce",
                      "type": "uint256"
                    },
                    {
                      "internalType": "uint256",
                      "name": "group",
                      "type": "uint256"
                    },
                    {
                      "internalType": "uint256",
                      "name": "expiry",
                      "type": "uint256"
                    }
                  ],
                  "internalType": "struct Common",
                  "name": "common",
                  "type": "tuple"
                }
              ],
              "internalType": "struct Action",
              "name": "action",
              "type": "tuple"
            }
          ],
          "internalType": "struct RelayedTake",
          "name": "message",
          "type": "tuple"
        },
        {
          "internalType": "bytes",
          "name": "outerSignature",
          "type": "bytes"
        },
        {
          "internalType": "bytes",
          "name": "innerSignature",
          "type": "bytes"
        }
      ],
      "name": "relayTake",
      "outputs": [],
      "stateMutability": "nonpayable",
      "type": "function"
    },
    {
      "inputs": [],
      "name": "unpause",
      "outputs": [],
      "stateMutability": "nonpayable",
      "type": "function"
    },
    {
      "inputs": [
        {
          "internalType": "address",
          "name": "newPauser",
          "type": "address"
        }
      ],
      "name": "updatePauser",
      "outputs": [],
      "stateMutability": "nonpayable",
      "type": "function"
    },
    {
      "inputs": [
        {
          "internalType": "address",
          "name": "newPendingOwner",
          "type": "address"
        }
      ],
      "name": "updatePendingOwner",
      "outputs": [],
      "stateMutability": "nonpayable",
      "type": "function"
    },
    {
      "inputs": [],
      "name": "verifier",
      "outputs": [
        {
          "internalType": "contract IAccountVerifier",
          "name": "",
          "type": "address"
        }
      ],
      "stateMutability": "view",
      "type": "function"
    },
    {
      "inputs": [
        {
          "components": [
            {
              "internalType": "UFixed6",
              "name": "amount",
              "type": "uint256"
            },
            {
              "internalType": "bool",
              "name": "unwrap",
              "type": "bool"
            },
            {
              "components": [
                {
                  "internalType": "UFixed6",
                  "name": "maxFee",
                  "type": "uint256"
                },
                {
                  "components": [
                    {
                      "internalType": "address",
                      "name": "account",
                      "type": "address"
                    },
                    {
                      "internalType": "address",
                      "name": "signer",
                      "type": "address"
                    },
                    {
                      "internalType": "address",
                      "name": "domain",
                      "type": "address"
                    },
                    {
                      "internalType": "uint256",
                      "name": "nonce",
                      "type": "uint256"
                    },
                    {
                      "internalType": "uint256",
                      "name": "group",
                      "type": "uint256"
                    },
                    {
                      "internalType": "uint256",
                      "name": "expiry",
                      "type": "uint256"
                    }
                  ],
                  "internalType": "struct Common",
                  "name": "common",
                  "type": "tuple"
                }
              ],
              "internalType": "struct Action",
              "name": "action",
              "type": "tuple"
            }
          ],
          "internalType": "struct Withdrawal",
          "name": "withdrawal",
          "type": "tuple"
        },
        {
          "internalType": "bytes",
          "name": "signature",
          "type": "bytes"
        }
      ],
      "name": "withdrawWithSignature",
      "outputs": [],
      "stateMutability": "nonpayable",
      "type": "function"
    }
  ],
  "transactionHash": "0x3261329d4e4b37e754402c82dac088175875722b3444b6936717482b512377df",
  "args": [
    "0xdfaC24748EEeAEE837AD78BeB20c6c8f648c3de9",
    "0x247CeaE79E5C5778e00F449eDEC1d49c06f1Ede8",
    "0x35c9C8c07B37899833eaed23a63E233A58a7E9Ef"
  ],
  "numDeployments": 1,
  "solcInputHash": "a02aa6facb1af92e3c2d6396e3ca37a6",
  "bytecode": "0x61012060408181523462000184576060826200509b8038038091620000258285620001e6565b83398101031262000184576200003b826200021e565b60208084015191936001600160a01b0390818416840362000184578401519481861686036200018457806080521683516389a3027160e01b81528281600481855afa908115620001dc579083915f916200019a575b5060a052845163a2060bcf60e01b815291829060049082905afa91821562000190575f926200014e575b505060c05260e05261010091825251614e679182620002348339608051826125b9015260a05182612332015260c0518281816108ff01528181610e1e0152818161190e0152818161220c01528181612d3d0152613e42015260e051828181611872015281816121340152818161270501528181612a780152612edd015251818181610276015281816117670152611e010152f35b90809250813d831162000188575b620001688183620001e6565b8101031262000184576200017c906200021e565b5f80620000ba565b5f80fd5b503d6200015c565b84513d5f823e3d90fd5b82819392503d8311620001d4575b620001b48183620001e6565b810103126200018457600491620001cc84926200021e565b909262000090565b503d620001a8565b85513d5f823e3d90fd5b601f909101601f19168101906001600160401b038211908210176200020a57604052565b634e487b7160e01b5f52604160045260245ffd5b51906001600160a01b0382168203620001845756fe608080604052600436101562000013575f80fd5b5f905f3560e01c908163032bb44314620030485750806303b1faf31462002f0c57806306ae70951462002ec5578063132d4eb11462002c1a5780631af3a6e61462002b845780632b7ac3f31462002b5b57806332878cc91462002b2357806332cd1a9a14620028df5780633f4ba83a146200284b57806345065f0f146200282d57806351b4c18d14620027e6578063554bab3c146200276b578063583dec3214620026635780635872fe45146200263f57806358c81fcb14620025e85780635c60da1b14620025a15780635c975abb14620025725780635d33db3c14620024ae57806378fab5c714620024905780637fefe809146200245e578063825ee62314620024405780638456cb591462002393578063872053a6146200236157806389a30271146200231a5780638c29933e14620022ab5780638da5cb5b14620022735780639fd0506d146200223b578063a2060bcf14620021f4578063aba30dfa14620021d6578063b20caf45146200219e578063b3684e13146200200f578063b51cf0a91462001f8b578063b5ee69551462001f22578063b7e8ef401462001ef0578063b8a5e3cd1462001eba578063ba9a91a51462001e8f578063c402f8601462001c68578063c4d66de81462001b7e578063cdb02a5f1462001994578063d3beb2981462001827578063d55cde1f14620015d3578063db06b6ae1462000f38578063e201ce971462000c7b578063e30c39781462000c43578063ebbc49651462000b98578063f2842ace1462000686578063f72e323c14620002a85763fddc205f146200025f575f80fd5b34620002a55780600319360112620002a5576040517f00000000000000000000000000000000000000000000000000000000000000006001600160a01b03168152602090f35b80fd5b5034620002a5576040366003190112620002a557620002c662003108565b81602480359060405160209080620002e28588858401620034c1565b0393620002f8601f199586810184528362003254565b60018060a01b0392838816958688526004825260408820838952825260408820549887895260039485845260408a20858b5284526200036160408b20549362000341846200375f565b620003546040519e8f92898401620034c1565b039081018d528c62003254565b5a8a5b8a8c5287865260408c20878d52865260408c20548110156200041157886200039e8260408f8f81528c8b528181208c82528b5220620031ae565b9054908a1b1c16803b156200040d578c80918c8e6040519485938492636a256b2960e01b845260048401525af190811562000402578d91620003e6575b505060010162000364565b620003f190620031d8565b620003fe578b5f620003db565b8b80fd5b6040513d8f823e3d90fd5b8c80fd5b50919892999a90975062000426858a62003898565b9a91501562000674576200043b88916200375f565b16978b5b8a518110156200050e57848d528786528c8760408220915286528c896200046a8360408420620031ae565b9054908b1b1c168c826200047f858362003883565b511262000493575b5050506001016200043f565b836200049f9162003883565b51908c3b156200050a57620004cf918d84928360405180968195829463e1638ba360e01b845260048401620034c1565b03925af18015620004ff57620004e7575b8c62000487565b620004f290620031d8565b6200040d578c8e620004e0565b6040513d84823e3d90fd5b8280fd5b509091998b5b8a51811015620005d457848d528786528c8760408220915286528c896200053f8360408420620031ae565b9054908b1b1c168c8262000554858362003883565b511362000568575b50505060010162000514565b83620005749162003883565b51908c3b156200050a57620005a4918d84928360405180968195829463e1638ba360e01b845260048401620034c1565b03925af18015620004ff57620005bc575b8c6200055c565b620005c790620031d8565b6200040d578c8e620005b5565b50938b946200060f8c886200065f977fd58ec24dc80af351d45ae5fa8586232e0013343355190b0ef9b77bd8dbb68d718a80a35a90620034dc565b9181156200066257600954916200062981600a5462003536565b6200063a600b5492600c5462003536565b92604051946200064a8662003200565b85528401526040830152606082015262003c89565b80f35b50506200066e620034ea565b62003c89565b6040516301b8e5e560e71b8152600490fd5b5034620002a5576200069836620030c6565b91620006b1620006ab606083016200328f565b6200375f565b9260405193620006de85620006cf60408601358460208401620034c1565b03601f19810187528662003254565b6040516200070681620006f78588886020850162003c4a565b03601f19810183528262003254565b604051620007148162003200565b600d5491828252600e5491826020820152600f549260408201938452606060105492019182525f94156001171562000b845762000766670de0b6b3a76400009162000760489162003518565b62003536565b0492519051915190608c8201821162000b8457608c8281016001600160fc1b031683030162000b845760405163f5d6ded760e01b815291602083600481606c5afa92831562000aad575f9362000b40575b50670de0b6b3a764000093620007ee85620007e6620007f5969562000760608c62000760970160041b62003518565b049162003518565b90620042ef565b04620008028183620042ef565b5f8051602062004c7283398151915254604051633fabe5a360e21b81529060a090829060049082906001600160a01b03165afa90811562000aad575f9162000ade575b50620008566305f5e1009162004144565b05905f821262000ac557670de0b6b3a764000091620008759162003536565b0460408980518101031262000ab85760208901516001600160a01b03811699908a900362000ab8576040620008ac910151620042d4565b8082101562000abc5750915b883b1562000ab85760405198630b220c3960e01b8a528360048b01525f60248b01525f8a60448183855af1998a1562000aad578b9a62000a97575b506200092d90849030907f00000000000000000000000000000000000000000000000000000000000000006001600160a01b031662004312565b5f8051602062004db28339815191525460405163a9059cbb60e01b60208201526200098591620009768262000967883360248401620034c1565b03601f19810184528362003254565b6001600160a01b03166200445f565b6040519380855260208501526040840152606083015260808201525f8051602062004d1283398151915260a03392a284546001600160a01b0391821694911691823b1562000a9357620009f39286928360405180968195829463cb5cd50960e01b84528a6004850162003c4a565b03925af190811562000a8857849162000a6c575b5050602081013580151580910362000a6757823b1562000a675760448492836040519586948593631c683a1b60e11b855235600485015260248401525af18015620004ff5762000a545750f35b62000a5f90620031d8565b620002a55780f35b505050fd5b62000a7790620031d8565b62000a8457825f62000a07565b5050fd5b6040513d86823e3d90fd5b8580fd5b62000aa4919550620031d8565b5f9383620008f3565b6040513d5f823e3d90fd5b5f80fd5b905091620008b8565b60405163280f944f60e11b815260048101839052602490fd5b905060a0813d60a01162000b37575b8162000afc60a0938362003254565b8101031262000ab857620008568162000b1a6305f5e10093620042fd565b5062000b2e608060208301519201620042fd565b50915062000845565b3d915062000aed565b9250906020833d60201162000b7b575b8162000b5f6020938362003254565b8101031262000ab85791519190670de0b6b3a7640000620007b7565b3d915062000b50565b634e487b7160e01b5f52601160045260245ffd5b5034620002a55780600319360112620002a5575f8051602062004df283398151915280546001600160a01b038116903382900362000c2b575f8051602062004cb283398151915255805f8051602062004d328339815191525f80a2330362000c1357819055805f8051602062004e128339815191528180a280f35b6040516399bf635960e01b8152336004820152602490fd5b604051630d0d5e1b60e41b8152336004820152602490fd5b5034620002a55780600319360112620002a5575f8051602062004df2833981519152546040516001600160a01b039091168152602090f35b5034620002a5576101c0366003190112620002a55762000c9a62003108565b6024356001600160a01b03811681036200050a57608036604319011262000ab8576040519162000cca8362003200565b60443583526064356020840152608435604084015260a435606084015260803660c319011262000ab85760405162000d028162003200565b60c435815260e435602082015261010435604082015261012435606082015260803661014319011262000ab8576040519262000d3e8462003200565b6101443584526101643560208501526101843560408501526101a435606085015260015f8051602062004cf283398151915254101562000f1f5760015f8051602062004cf28339815191525560015f8051602062004c9283398151915255303b15158062000f17575b62000ee357303b15158062000f0f575b62000ee3575f8051602062004cb283398151915280546001600160a01b031662000efd57339055335f8051602062004d328339815191525f80a2303b15158062000ef5575b62000ee3576001600160a01b039081165f8051602062004c72833981519152557f00000000000000000000000000000000000000000000000000000000000000005f8051602062004db28339815191525585546001600160a01b03191692169190911784558251600555602080840151600655604080850151600755606094850151600855825160095582820151600a5582810151600b5591840151600c558251600d5582810151600e5582820151600f5591909201516010555f8051602062004c928339815191528390559051600181525f8051602062004cd28339815191529190a180f35b60405163b9a621e160e01b8152600490fd5b505f62000dfc565b60405163721deea760e11b8152600490fd5b508562000db7565b508562000da7565b604051631edb9c6d60e11b815260016004820152602490fd5b5034620002a557600319604036820112620015cf576001600160401b039060043582106200050a576101609060043536030112620015cf57602435908111620015cf5762000f8f62000ff491369060040162003096565b9060a4600435018462000fa2826200328f565b93620010016040519562000fdc8762000fc685896004356004016020850162003b27565b0391620006ab601f19938481018b528a62003254565b604051988991608460043501359060208401620034c1565b0390810188528762003254565b5a9360018060a01b0383541691823b15620015cb57620010419284928360405180968195829463bbcb574160e01b84526004356004016004850162003b27565b03925af18015620004ff57620015af575b50506200105f906200328f565b91600435600401351580156200159e575b6200158c5760046200108a6024823501823583016200436d565b9050116200157a57845b6001600160a01b03841686526003602081815260408089206004803501358a529091528720548210156200115b5790600191828060a01b03861688528060205260408820600435600401358952602052620010f38260408a20620031ae565b848060a09493941b039254911b1c16828060a01b03861688525f838060205260408a20600435600401358b5260205260408a20838352602052604082208281550155828060a01b0386168852600260205260408820905f526020525f60408120550162001094565b5050929060018060a01b038316855260036020526040852060043560040135865260205260408520805490868155816200155a575b5050849185925b620011ad6024600435016004356004016200436d565b905084101562001492576001600160a01b038516875260026020526040872084620011ff620011f9620011e9600480356024810191016200436d565b6001600160a01b039491620043a5565b6200328f565b165f5260205260405f2054806200145457506001600160a01b03851687526002602052604087208462001243620011f9620011e9600480356024810191016200436d565b165f526020526004356004013560405f2055620012778462001270604460043501600435600401620043b6565b90620043ee565b60018060a01b03861688526001602052604088206004356004013589526020526040882085620012ba620011f9620011e96024600435016004356004016200436d565b165f526020526001602060405f209280358455013591015560018060a01b0385168752600360205260408720600435600401358852602052604087208462001315620011f9620011e96024600435016004356004016200436d565b8254911691600160401b8210156200144057916200134082620013a7946001809795018155620031ae565b819291549060031b91821b91868060a01b03901b1916179055828060a01b0387168952600460205260408920600435600401358a526020526064600435013560408a20556200139f8662001270604460043501600435600401620043b6565b3590620042ef565b93620013ce620011f982620013c76024600435016004356004016200436d565b90620043a5565b620013e98262001270604460043501600435600401620043b6565b906020604051928035845201356020830152838060a01b03169060043560040135907f499f2d584337dd47a4e71a8a4c57b77ad0058bb1a360335a855979a5ca3061d46040868060a01b038b1692a4019262001197565b634e487b7160e01b8a52604160045260248afd5b6044908562001476620011f9620011e96024600435016004356004016200436d565b16906040519163710a325d60e11b835260048301526024820152fd5b909391949250620014ae6024600435016004356004016200436d565b90501515908162001542575b5062001530576200065f936200152691620014e06024600435016004356004016200436d565b604051908152600480350135926001600160a01b031691507f18fea070ebed40821f9c45ae1f8c875c49b031e4ff3b701b4772ade527f5108890602090a35a90620034dc565b6200066e620034ea565b604051631916028760e21b8152600490fd5b6001915062001551906200442d565b14155f620014ba565b865260208620908101905b8181101562001190575f815560010162001565565b6040516376674fed60e11b8152600490fd5b6040516350b5d3f960e11b8152600490fd5b506008600435600401351162001070565b620015ba90620031d8565b620015c757845f62001052565b8480fd5b8380fd5b5080fd5b5034620002a55736600319016101e08112620015cf576101a013620002a5576001600160401b036101a4358181116200050a576200161690369060040162003096565b916101c435908111620015cb576200163390369060040162003096565b90919060e4356001600160a01b038116900362000ab857620016d7928591604051936200166360208601620032a4565b60c43560e08601526200167a6101008601620033b5565b6101e06101c0860152620016b285620006cf6200169d61020083018b8662003473565b828103601f19016101e0840152858762003473565b620016e6620016c360e4356200375f565b60405197889160c4359060208401620034c1565b03601f19810188528762003254565b5a9660018060a01b0385541691823b1562000a93576200174f9286928360405180968195829463f5ba0b1d60e01b84526200172460048501620032a4565b60c43560c48501526200173a60e48501620033b5565b6101c06101a48501526101c484019162003473565b03925af190811562000a885784916200180f575b50507f00000000000000000000000000000000000000000000000000000000000000006001600160a01b031691823b15620015cb57620017d392849283604051809681958294631d0a82e560e11b8452620017c160048501620032a4565b60e060c485015260e484019162003473565b03925af18015620004ff57620017f7575b5050620015266200065f935a90620034dc565b6200180290620031d8565b620015cb57835f620017e4565b6200181a90620031d8565b6200050a57825f62001763565b5034620002a5576040366003190112620002a5576200184562003108565b60405163131bac4760e11b81526001600160a01b03828116600483015233602483015291906020816044817f000000000000000000000000000000000000000000000000000000000000000087165afa90811562000a885784916200195e575b50156200194c57620018b7906200375f565b90620018c5602435620042d4565b9083818416803b15620015cf57818091604460405180948193630b220c3960e01b83528960048401528160248401525af18015620004ff5762001934575b50506200065f9233917f00000000000000000000000000000000000000000000000000000000000000001662004312565b6200193f90620031d8565b620015cb57835f62001903565b604051630c8e427960e11b8152600490fd5b62001985915060203d6020116200198c575b6200197c818362003254565b81019062003b0d565b5f620018a5565b503d62001970565b5034620002a5578062001a5a62001a1f620019af3662003134565b92969362001a6962001a43620019cb604084969596016200328f565b620006ab8b62001a346040519b8c92620019e9602085018a62003ada565b61010089013561012085015262001a0961014085016101208b0162003413565b6102206102008501528961024085019162003473565b828103601f19016102208401528a8a62003473565b03601f1981018b528a62003254565b6040519889916101008501359060208401620034c1565b03601f19810189528862003254565b5a85549098906001600160a01b0316803b1562001b7a5760405163428a9aed60e11b8152918791839182908490829062001ae39062001aac600484018b62003ada565b6101008a01356101048401526101249a62001ace8c85016101208d0162003413565b6102006101e485015261020484019162003473565b03925af190811562001b6f57869162001b57575b506001600160a01b03905062001b10608083016200328f565b1690813b1562000a93578562001b4591620017d38296604051988997889687956338648b1f60e21b8752600487019062003ada565b61012061010486015284019162003473565b62001b6290620031d8565b620015c757845f62001af7565b6040513d88823e3d90fd5b8680fd5b5034620002a5576020366003190112620002a55762001b9c62003108565b5f8051602062004cf283398151915260018154101562000f1f57600190555f8051602062004c9283398151915260018155303b15158062001c60575b62000ee357303b15158062001c58575b62000ee3575f8051602062004cb2833981519152805490926001600160a01b0391821662000efd578493339055335f8051602062004d328339815191525f80a283546001600160a01b031916911617825555604051600181525f8051602062004cd283398151915290602090a180f35b508262001be8565b508262001bd8565b5034620002a55736600319016102008112620015cf576101c013620002a5576001600160401b036101c4358181116200050a5762001cab90369060040162003096565b916101e435908111620015cb5762001cc890369060040162003096565b909190610104356001600160a01b038116900362000ab857620016d792859160405193600435602086015262001d0160408601620032fd565b60e43561010086015262001d19610120860162003356565b6102006101e086015262001d5185620006cf62001d3c61022083018b8662003473565b828103601f1901610200840152858762003473565b62001d7762001d63610104356200375f565b60405197889160e4359060208401620034c1565b5a9660018060a01b0385541691823b1562000a935762001de99286928360405180968195829463106941a960e31b8452600435600485015262001dbd60248501620032fd565b60e43560e485015262001dd4610104850162003356565b6101e06101c48501526101e484019162003473565b03925af190811562000a8857849162001e77575b50507f00000000000000000000000000000000000000000000000000000000000000006001600160a01b031691823b15620015cb57620017d39284928360405180968195829463715a86c560e01b8452600435600485015262001e6360248501620032fd565b61010060e485015261010484019162003473565b62001e8290620031d8565b6200050a57825f62001dfd565b5034620002a55780600319360112620002a55760206040515f8051602062004d928339815191528152f35b5034620002a55780600319360112620002a557600d54600e549062001eec600f54601054906040519485948562003192565b0390f35b5034620002a55780600319360112620002a557600954600a549062001eec600b54600c54906040519485948562003192565b5034620002a5576020366003190112620002a55762001f4062003108565b5f8051602062004cb2833981519152546001600160a01b039190339083160362000c1357805f8051602062004df283398151915255165f8051602062004e128339815191528280a280f35b5034620002a5576040366003190112620002a55762001fb762001fad62003108565b6024359062003898565b90919260405193849360608501918552602090151560208601526060604086015283518092526020608086019401925b82811062001ff757505050500390f35b83518552869550938101939281019260010162001fe7565b5034620002a55780620020b8620020263662003134565b836200203c61012087949597999699016200328f565b95620020c5604051976200205460208a0187620036ea565b620020a161022091620006ab8b620020946200207f61020099878b8501528961024085019162003473565b601f19968784830301908401528a8d62003473565b038481018d528c62003254565b6040519a8b916101008901359060208401620034c1565b039081018a528962003254565b5a865490996001600160a01b039390918416803b156200219a576200210a89886200211c82966040519889978896879563de4030ed60e01b87526004870190620036ea565b6101e485015261020484019162003473565b03925af190811562001b6f57869162002182575b50507f000000000000000000000000000000000000000000000000000000000000000016803b15620015c757620017d3938580946040519687958694859363c655a23d60e01b85526004850162003728565b6200218d90620031d8565b620015c757845f62002130565b8880fd5b5034620002a55780600319360112620002a5575f8051602062004c72833981519152546040516001600160a01b039091168152602090f35b5034620002a55780600319360112620002a5576020604051608c8152f35b5034620002a55780600319360112620002a5576040517f00000000000000000000000000000000000000000000000000000000000000006001600160a01b03168152602090f35b5034620002a55780600319360112620002a5575f8051602062004d52833981519152546040516001600160a01b039091168152602090f35b5034620002a55780600319360112620002a5575f8051602062004cb2833981519152546040516001600160a01b039091168152602090f35b5034620002a5576060366003190112620002a557620022c962003108565b6001600160a01b0390811682526003602090815260408084206024358552909152822080546044359390841015620002a557506020926200230a91620031ae565b90549060031b1c16604051908152f35b5034620002a55780600319360112620002a5576040517f00000000000000000000000000000000000000000000000000000000000000006001600160a01b03168152602090f35b5034620002a55780600319360112620002a5576005546006549062001eec600754600854906040519485948562003192565b5034620002a55780600319360112620002a5575f8051602062004d5283398151915254336001600160a01b039182161415908162002423575b506200240b5760015f8051602062004dd2833981519152557f9e87fac88ff661f02d44f95383c817fece4bce600a3dab7a54406878b965e7528180a180f35b604051637bcc3d4960e11b8152336004820152602490fd5b90505f8051602062004cb283398151915254163314155f620023cc565b5034620002a55780600319360112620002a557602060405160088152f35b5034620002a55780600319360112620002a55760206200247e3362004052565b6040516001600160a01b039091168152f35b5034620002a55780600319360112620002a557602060405160108152f35b5034620002a5576040366003190112620002a557620024cc62003108565b9060018060a01b0380921681526020906003825260408120602435825282526040812090604051808484549182815201908194845285842090845b8181106200255b57505050816200252091038262003254565b6040519380850191818652518092526040850193925b828110620025445785850386f35b835187168552938101939281019260010162002536565b825489168452928701926001928301920162002507565b5034620002a55780600319360112620002a55760205f8051602062004dd2833981519152546040519015158152f35b5034620002a55780600319360112620002a5576040517f00000000000000000000000000000000000000000000000000000000000000006001600160a01b03168152602090f35b5034620002a5576040366003190112620002a5576200260662003108565b6024356001600160a01b03818116939184900362000ab857604092168152600260205220905f52602052602060405f2054604051908152f35b5034620002a5576020366003190112620002a55760206200247e620006ab62003108565b5034620002a55780620020b86200267a3662003134565b836200269061012087949597999699016200328f565b95620026a8604051976200205460208a0187620036ea565b5a865490996001600160a01b039390918416803b156200219a576200210a8988620026ed829660405198899788968795631ea190c560e31b87526004870190620036ea565b03925af190811562001b6f57869162002753575b50507f000000000000000000000000000000000000000000000000000000000000000016803b15620015c757620017d3938580946040519687958694859363aac3454b60e01b85526004850162003728565b6200275e90620031d8565b620015c757845f62002701565b5034620002a5576020366003190112620002a5576200278962003108565b5f8051602062004cb2833981519152546001600160a01b039190339083160362000c1357805f8051602062004d5283398151915255167fa4336c0cb1e245b95ad204faed7e940d6dc999684fd8b5e1ff597a0c4efca8ab8280a280f35b5034620002a5576040366003190112620002a5576020906040906001600160a01b036200281262003108565b16815260048352818120602435825283522054604051908152f35b5034620002a55780600319360112620002a557602060405160048152f35b5034620002a55780600319360112620002a5575f8051602062004d5283398151915254336001600160a01b0391821614159081620028c2575b506200240b57805f8051602062004dd2833981519152557fa45f47fdea8a1efdd9029a5691c7f759c32b7c698632b563573e155625d169338180a180f35b90505f8051602062004cb283398151915254163314155f62002884565b5034620002a557600319606036820112620015cf576001600160401b039060043590828211620015cb5783826004019183360390610100818301126200050a57602435868111620015cb576200293a90369060040162003096565b959096604435908111620015c7576200295890369060040162003096565b95909262002969604484016200328f565b6040516060602082015297908990898c620029886080830188620036a5565b601f199d8e848303016040850152620029a19262003473565b8c828203016060830152620029b890858a62003473565b038b81018b52620029ca908b62003254565b620029d5906200375f565b99604051809b60248801356020830191620029f092620034c1565b039081018b5262002a02908b62003254565b5a8854909b6001600160a01b03929091831690813b1562002b1f578a9162002a4f838962002a6060405197889687958694630644642f60e21b8652604060048701526044860190620036a5565b918d85840301602486015262003473565b03925af190811562002b1457899162002af8575b50507f000000000000000000000000000000000000000000000000000000000000000016923595610102190186121562001b7a57823b1562001b7a5762002ae895620017d360049389979388946040519a8b998a98899763b557198f60e01b89526040828a01526044890192010162003650565b9285840301602486015262003473565b62002b0390620031d8565b62002b1057875f62002a74565b8780fd5b6040513d8b823e3d90fd5b8a80fd5b5034620002a55780600319360112620002a5575f8051602062004db2833981519152546040516001600160a01b039091168152602090f35b5034620002a55780600319360112620002a557546040516001600160a01b039091168152602090f35b5034620002a5576060366003190112620002a55762002ba262003108565b6044356001600160a01b038181169182900362000ab857604093849182519462002bcc866200321c565b82865282602080970152168152600184528181206024358252845220905f528152815f2090825162002bfe816200321c565b8160018454948584520154910190815283519283525190820152f35b5034620002a55762002c2c36620030c6565b60608392949301620006ab858462002c44846200328f565b9462002ca06040519662002c7b8862002c658560209e8f9d8e85016200354a565b0391620006ab601f19938481018c528b62003254565b62002c936040519a8b926040880135918401620034c1565b0390810189528862003254565b5a946001600160a01b0394859162002cb991906200328f565b16928489541690813b1562002ec15791899162002cef938360405180968195829463c4786d9b60e01b84528a600485016200354a565b03925af1801562002eb65790889162002e9e575b50508262002d11826200328f565b604051637e062a3560e11b81529116938982600481885afa91821562002b1457899262002e5f575b50807f00000000000000000000000000000000000000000000000000000000000000001691160362002e4657813b1562001b7a57918691888362002d98956040519687958694859363e1638ba360e01b855201359060048401620034c1565b03925af1801562002e3b5790859162002e23575b505062002dbb905a90620034dc565b600954600a548080046001148115171562002e0f57600b54600c54918280046001148315171562002dfb576200065f9798604051946200064a8662003200565b634e487b7160e01b88526011600452602488fd5b634e487b7160e01b86526011600452602486fd5b62002e2e90620031d8565b620015cb57835f62002dac565b6040513d87823e3d90fd5b60405163950cd07160e01b815260048101849052602490fd5b9091508981813d831162002e96575b62002e7a818362003254565b810103126200219a575181811681036200219a57905f62002d39565b503d62002e6e565b62002ea990620031d8565b62001b7a57865f62002d03565b6040513d8a823e3d90fd5b8980fd5b5034620002a55780600319360112620002a5576040517f00000000000000000000000000000000000000000000000000000000000000006001600160a01b03168152602090f35b503462000ab8573660031901610100811262000ab85760e01362000ab85760e435906001600160401b03821162000ab85762002f5162002fa692369060040162003096565b62002f5e93919362003278565b9062002fb36040519262002f928462002f7c858a6020840162003493565b0391620006ab601f199384810188528762003254565b6040519586916004359060208401620034c1565b0390810185528462003254565b5a9062002fbf62003278565b9560018060a01b035f541691823b1562000ab85762002ff8925f9283604051809681958294638008e34960e01b84526004840162003493565b03925af1801562000aad5762003028575b5062001526906200301f6200065f959662004052565b505a90620034dc565b6200065f9450906200303e6200152692620031d8565b5f94509062003009565b3462000ab857602036600319011262000ab8576004356001600160a01b038116919082900362000ab8576020915f525f8051602062004d72833981519152825260ff60405f20541615158152f35b9181601f8401121562000ab8578235916001600160401b03831162000ab8576020838186019501011162000ab857565b906003198201610140811262000ab8576101201362000ab85760049161012435906001600160401b03821162000ab857620031049160040162003096565b9091565b600435906001600160a01b038216820362000ab857565b35906001600160a01b038216820362000ab857565b906003198201610220811262000ab8576101e01362000ab8576004916001600160401b03916101e43583811162000ab85782620031749160040162003096565b939093926102043591821162000ab857620031049160040162003096565b9094939260609260808301968352602083015260408201520152565b8054821015620031c4575f5260205f2001905f90565b634e487b7160e01b5f52603260045260245ffd5b6001600160401b038111620031ec57604052565b634e487b7160e01b5f52604160045260245ffd5b608081019081106001600160401b03821117620031ec57604052565b604081019081106001600160401b03821117620031ec57604052565b606081019081106001600160401b03821117620031ec57604052565b601f909101601f19168101906001600160401b03821190821017620031ec57604052565b6024356001600160a01b038116810362000ab85790565b356001600160a01b038116810362000ab85790565b6001600160a01b036004358181169081900362000ab857825260243581811680910362000ab857602083015260443590811680910362000ab85760408201526064356060820152608435608082015260a060a435910152565b6001600160a01b036024358181169081900362000ab857825260443581811680910362000ab857602083015260643590811680910362000ab8576040820152608435606082015260a435608082015260a060c435910152565b6001600160a01b03610104358181169081900362000ab85782526101243581811680910362000ab85760208301526101443590811680910362000ab857604082015261016435606082015261018435608082015260a06101a435910152565b6001600160a01b0360e4358181169081900362000ab85782526101043581811680910362000ab85760208301526101243590811680910362000ab857604082015261014435606082015261016435608082015260a061018435910152565b60a09081906001600160a01b03806200342c836200311f565b168552806200343e602084016200311f565b16602086015262003452604083016200311f565b16604085015260608101356060850152608081013560808501520135910152565b908060209392818452848401375f828201840152601f01601f1916010190565b91620034be92610100906004358152620034b060208201620032fd565b8160e0820152019162003473565b90565b6001600160a01b039091168152602081019190915260400190565b9190820391821162000b8457565b60405190620034f98262003200565b6005548252600654602083015260075460408301526008546060830152565b90670de0b6b3a76400009182810292818404149015171562000b8457565b8181029291811591840414171562000b8457565b620034be9391610140919062003591906001600160a01b036200356d826200311f565b16835260208101356020840152604081013560408401526060808401910162003413565b81610120820152019162003473565b9035601e198236030181121562000ab8570160208101919035906001600160401b03821162000ab8578160061b3603831362000ab857565b3590811515820362000ab857565b6020906200360d9082906001600160a01b0362003603826200311f565b16855201620035d8565b1515910152565b916020908281520191905f5b8181106200362e5750505090565b909192806200364060019286620035e6565b6040908101940192910162003620565b620034be906040806200369b6200367d6101006200366f8680620035a0565b9091808a5289019162003614565b6200368c6020860186620035a0565b9088830360208a015262003614565b9401910162003413565b8035906101003682900360fe190183121562000ab8576040620036d6620034be948484849589528801910162003650565b946020840135602082015201910162003413565b6200372691620036fb8183620035e6565b6200370d604082016040840162003413565b6101008083013590820152610120809101910162003413565b565b90620034be93916200375061012092620037438382620035e6565b6040808401910162003413565b81610100820152019162003473565b600b6055915f8051602062004d92833981519152604091825160209163189acdbd60e31b8383015260018060a01b0316602482015260248152620037a38162003238565b6200380e6200381b8361065593875190620037c18387018362003254565b858252828201956200461d87398851620037e581620006f78682019430866200402e565b8951958693620037fe868601998a925192839162003fe4565b8401915180938684019062003fe4565b0103808452018262003254565b5190208351938401528201523081520160ff81532090565b6001600160401b038111620031ec5760051b60200190565b90620038578262003833565b62003866604051918262003254565b828152809262003879601f199162003833565b0190602036910137565b8051821015620031c45760209160051b010190565b915f905f60018060a01b0380951691825f5260039560209660038852604096875f20815f528952620038cd885f20546200384b565b935f955b8551871015620039eb57875f52838b52895f20835f528b5284620038f8888c5f20620031ae565b905490861b1c168a5190635b4b969560e01b825281806004928c84830152608092839160249687915afa918215620039e157908e92915f926200397f575b505001519283620039488b8b62003883565b525f84820194851291129080158216911516176200396e575050600190960195620038d1565b601190634e487b7160e01b5f52525ffd5b8193508092503d8311620039d9575b6200399a818362003254565b8101031262000ab8578c518d918f620039b38362003200565b8151835280820151908301528281015183830152606080910151908201525f8062003936565b503d6200398e565b8e513d5f823e3d90fd5b955097929890919598859662003a0286516200384b565b975f995b87518b101562003acb576001908a8c8f62003aa6818e8e62003a9e8f8f908f918f928f938b9462003aaf9b5f52808352845f20845f52835262003a4c86865f20620031ae565b9054911b1c1697805f528e98898352845f20845f528352845f20905f528252835f209884519962003a7d8b6200321c565b80548b520154828a01525f5260048152825f20915f52525f20549262003883565b519262004162565b92909362003883565b52811562003ac2575b509a019962003a06565b90505f62003ab8565b9a9899509a5050505050505050565b80358252620037269160409081906001600160a01b0362003afe602086016200311f565b16602082015201910162003413565b9081602091031262000ab85751801515810362000ab85790565b9193929093604092604081526101a08101938635604083015260209081880135601e198936030181121562000ab8578801828101969035906001600160401b03821162000ab8578160051b3603881362000ab85781906101606060870152526101c0840196905f5b81811062003c22575050508162003baa60408a018a620035a0565b919097603f198682030160808701528281520196915f5b82811062003c05575050505062003bf9876060620034be9899013560a0850152608081013560c085015260a060e08501910162003413565b81850391015262003473565b8335895284840135858a0152978101979281019260010162003bc1565b9091978480600192838060a01b0362003c3b8d6200311f565b16815201990192910162003b8f565b90620034be939162003591610140928035835262003c6b60208201620035d8565b15156020840152604081013560408401526060808401910162003413565b919290925f9083519160206200076062003cca82880151620007608a62003cbd670de0b6b3a7640000998a96879362003518565b04620007ee489362003518565b04936040936060858901519801519051608c810180911162000b84576004986001600160fc1b038216820362003fd157865163f5d6ded760e01b81529185838c81606c5afa92831562003f8a57908b869493925f9462003f94575b5084620007e662000760946200076062003d47989995620007ee951b62003518565b049562003d558787620042ef565b5f8051602062004c72833981519152548651633fabe5a360e21b81526001600160a01b0394929160a09082908d90829089165afa90811562003f8a575f9162003f29575b5062003daa6305f5e1009162004144565b05905f821262003f12579062003dc09162003536565b04858280518101031262000ab857838201519183831680930362000ab8578662003dec910151620042d4565b8082101562003f095750975b813b1562000ab85788865191630b220c3960e01b83528201525f60248201525f8160448183865af1801562003eff579089929162003ede575b5062003eb3929162003e68913090847f00000000000000000000000000000000000000000000000000000000000000001662004312565b5f8051602062004db283398151915254855163a9059cbb60e01b85820152919062003eac8362003e9d8c3360248401620034c1565b03601f19810185528462003254565b166200445f565b8251968752860152840152606083015260808201525f8051602062004d1283398151915260a03392a2565b62003ef291955062003eb3939250620031d8565b5f93909188919062003e31565b86513d5f823e3d90fd5b90509762003df8565b875163280f944f60e11b8152808c01839052602490fd5b905060a0813d60a01162003f81575b8162003f4760a0938362003254565b8101031262000ab85762003daa8162003f656305f5e10093620042fd565b5062003f786080898301519201620042fd565b50915062003d99565b3d915062003f38565b88513d5f823e3d90fd5b9350509092508582813d831162003fc9575b62003fb2818362003254565b8101031262000ab8579051849290918b8462003d25565b503d62003fa6565b60118a634e487b7160e01b5f525260245ffd5b5f5b83811062003ff65750505f910152565b818101518382015260200162003fe6565b90602091620040228151809281855285808601910162003fe4565b601f01601f1916010190565b6001600160a01b039091168152604060208201819052620034be9291019062004007565b60405163189acdbd60e31b60208201526001600160a01b0391821660248083018290528252929190620040858162003238565b604051610655808201906001600160401b03821183831017620031ec575f8051602062004d92833981519152938392620040c7926200461d853930906200402e565b03905ff5801562000aad5716805f525f8051602062004d7283398151915260205260405f20600160ff19825416179055807f4fe45192317a7d3ad19c3eaa395c0c3a1b7a0f53c3536fb96764c3561a8e9dad5f80a280927f2682a218602b9036c9869f006c5405ee4a1a65267653eb7e286123e5e1afde4c5f80a3565b90670de0b6b3a76400009182810292818405149015171562000b8457565b80519293926001600160ff1b038111620042bc5784810294600160ff1b915f82128382141662000b8457818705149015171562000b8457620f4240809505906001620041ae83620043ff565b1462004269578585029085820587148615171562000b84578215620042555781145f1983141662000b8457819005945f868203961281871281169187139015161762000b84575f848203941281851281169185139015161762000b84576200422a60029160206200422086976200441d565b910151906200444c565b1491826200423757505091565b60029250906200424b62004251926200441d565b6200444c565b1491565b634e487b7160e01b5f52601260045260245ffd5b505050909291620f423f1980850290858205148515171562000b845760019162004295910594620043ff565b14159081620042a357509190565b60029150620042b7906200424b856200441d565b149190565b6024906040519063eecaa25d60e01b82526004820152fd5b64e8d4a510009081810291818304149015171562000b845790565b9190820180921162000b8457565b51906001600160501b038216820362000ab857565b6040516323b872dd60e01b60208201526001600160a01b03928316602482015292909116604483015260648083019390935291815260a08101918183106001600160401b03841117620031ec5762003726926040526200445f565b903590601e198136030182121562000ab857018035906001600160401b03821162000ab857602001918160051b3603831362000ab857565b9190811015620031c45760051b0190565b903590601e198136030182121562000ab857018035906001600160401b03821162000ab857602001918160061b3603831362000ab857565b9190811015620031c45760061b0190565b5f811362004417575f136200441357600190565b5f90565b50600290565b5f8112620044285790565b5f0390565b620f4240908181116200444557106200441357600190565b5050600290565b8181116200444557106200441357600190565b60018060a01b031660405162004475816200321c565b5f806020948584527f5361666545524332303a206c6f772d6c6576656c2063616c6c206661696c656486850152858151910182865af13d156200456f573d906001600160401b038211620031ec57620044ef9360405192620044e187601f19601f840116018562003254565b83523d5f8785013e62004579565b80519081620044fd57505050565b82806200450f93830101910162003b0d565b15620045185750565b6084906040519062461bcd60e51b82526004820152602a60248201527f5361666545524332303a204552433230206f7065726174696f6e20646964206e6044820152691bdd081cdd58d8d9595960b21b6064820152fd5b91620044ef926060915b91929015620045de57508151156200458f575090565b3b15620045995790565b60405162461bcd60e51b815260206004820152601d60248201527f416464726573733a2063616c6c20746f206e6f6e2d636f6e74726163740000006044820152606490fd5b825190915015620045f25750805190602001fd5b60405162461bcd60e51b8152602060048201529081906200461890602483019062004007565b0390fdfe608060409080825261065580380380916100198285610342565b833981019082818303126102385761003081610365565b6020828101516001600160401b039391929184821161023857019084601f830112156102385781519161006283610379565b9261006f88519485610342565b8084528484019685828401011161023857868561008c9301610394565b803b156102f0578551635c60da1b60e01b80825292916001600160a01b0316908481600481855afa9081156102e6575f916102b1575b503b15610254577fa3f0ad74e5423aebfd80d3ef4346578335a9a72aeaee59ff6cb3582b35133d5080546001600160a01b03191682179055865192817f1cf3b03a6cf19fa2baba4df148e9dcabedea7f8a5c07840e207e5c089be95d3e5f80a282511580159061024d575b610140575b87516101ec90816104698239f35b6004848693819382525afa918215610243575f92610208575b5085519360608501908111858210176101f4578652602784527f416464726573733a206c6f772d6c6576656c2064656c65676174652063616c6c83850152660819985a5b195960ca1b84870152516101de945f918291845af4903d156101eb573d6101c381610379565b906101d088519283610342565b81525f81943d92013e6103b5565b505f808080808080610132565b606092506103b5565b634e487b7160e01b5f52604160045260245ffd5b9091508281813d831161023c575b6102208183610342565b810103126102385761023190610365565b905f610159565b5f80fd5b503d610216565b86513d5f823e3d90fd5b505f61012d565b865162461bcd60e51b815260048101859052603060248201527f455243313936373a20626561636f6e20696d706c656d656e746174696f6e206960448201526f1cc81b9bdd08184818dbdb9d1c9858dd60821b6064820152608490fd5b90508481813d83116102df575b6102c88183610342565b81010312610238576102d990610365565b5f6100c2565b503d6102be565b88513d5f823e3d90fd5b855162461bcd60e51b815260048101849052602560248201527f455243313936373a206e657720626561636f6e206973206e6f74206120636f6e6044820152641d1c9858dd60da1b6064820152608490fd5b601f909101601f19168101906001600160401b038211908210176101f457604052565b51906001600160a01b038216820361023857565b6001600160401b0381116101f457601f01601f191660200190565b5f5b8381106103a55750505f910152565b8181015183820152602001610396565b9192901561041757508151156103c9575090565b3b156103d25790565b60405162461bcd60e51b815260206004820152601d60248201527f416464726573733a2063616c6c20746f206e6f6e2d636f6e74726163740000006044820152606490fd5b82519091501561042a5750805190602001fd5b6044604051809262461bcd60e51b82526020600483015261045a8151809281602486015260208686019101610394565b601f01601f19168101030190fdfe608080604052366100af575f8051602061019783398151915254635c60da1b60e01b8252602090829060049082906001600160a01b03165afa9081156100a4575f9161004c575b50610179565b905060203d60201161009d575b601f8101601f19168201916001600160401b03831181841017610089576100839260405201610134565b5f610046565b634e487b7160e01b5f52604160045260245ffd5b503d610059565b6040513d5f823e3d90fd5b5f8051602061019783398151915254604051635c60da1b60e01b815290602090829060049082906001600160a01b03165afa9081156100a4575f916100f45750610179565b602091503d821161012c575b601f8201601f19168101916001600160401b03831182841017610089576100839260405281019061015a565b3d9150610100565b602090607f190112610156576080516001600160a01b03811681036101565790565b5f80fd5b9081602091031261015657516001600160a01b03811681036101565790565b5f8091368280378136915af43d5f803e15610192573d5ff35b3d5ffdfea3f0ad74e5423aebfd80d3ef4346578335a9a72aeaee59ff6cb3582b35133d50a26469706673582212204f0ab61d331c360c51475166a3e420f36ae998b54d56087661bab140a2136b5364736f6c634300081800332b50211693ec91bcfe327771928b74a8f475c508d53e86fca4153bcf0f0e87762801b00eb06461cf9fcb9758b5fafd884ff06a86177386f73b6c49f0bf5a5af0e7742ddf0fecd2926e7ef4d6d6e91a7b2f0b1f8805b78953dac8454e86273ed2be9b076dc5b65990cca9dd9d7366682482e7817a6f6bc7f4faf4dc32af497f326fee9688c285c5c5c97d6a1a29adced674e6b2ad0888b8ad2116b58a8b3ea248fa0333956d06e335c550bd5fc4ac9c003c6545e371331b1071fa4d5d8519d6c14ffd725fc4a22075e9ec71c59edf9c38cdeb588a91b24fc5b61388c5be41282b18e50ee9696440d335192aeeeffc26f47782eaa914f1700d8ad36d6d7f7261b381796b4965de195665289d95668a8a9e7020858e15f5341c42bcf9951c1768ada7061a14e3ecf6b6005ae012e8d4e1b45b16518ae5b5553dad6dcd441776ee675b5cbfa852c5bd03e540eba853f8faf28a604a4d82bee1091096bfaea14d08c33d13b7e57307bea7f94c474c597247d2da93d7de9136f8e123ed6525f50bbcec675c83682abbc3e7dd47e40515a778fbbde4393395c3dd3588244203c3e4788369f201bc2089b9be6195d876d97a0136b4cf56bbf8986a52dcb50697f7d1cac5a2646970667358221220bbd4be06949be89b4059e7c0637eea2d825c874a30feec0021aa9160d06cf44c64736f6c63430008180033"
}