{
  "address": "0x0c3C2c104A7eDeC4251f8f8D0C737B1C854207b5",
  "abi": [
    {
      "inputs": [
        {
          "internalType": "Token6",
          "name": "usdc_",
          "type": "address"
        },
        {
          "internalType": "Token18",
          "name": "dsu_",
          "type": "address"
        },
        {
          "internalType": "contract IFactory",
          "name": "marketFactory_",
          "type": "address"
        },
        {
          "internalType": "contract IFactory",
          "name": "makerVaultFactory_",
          "type": "address"
        },
        {
          "internalType": "contract IFactory",
          "name": "solverVaultFactory_",
          "type": "address"
        },
        {
          "internalType": "contract IBatcher",
          "name": "batcher_",
          "type": "address"
        },
        {
          "internalType": "contract IEmptySetReserve",
          "name": "reserve_",
          "type": "address"
        },
        {
          "internalType": "uint256",
          "name": "keepBufferBase_",
          "type": "uint256"
        },
        {
          "internalType": "uint256",
          "name": "keepBufferCalldata_",
          "type": "uint256"
        }
      ],
      "stateMutability": "nonpayable",
      "type": "constructor"
    },
    {
      "inputs": [],
      "name": "DivisionByZero",
      "type": "error"
    },
    {
      "inputs": [
        {
          "internalType": "uint256",
          "name": "value",
          "type": "uint256"
        }
      ],
      "name": "Fixed18OverflowError",
      "type": "error"
    },
    {
      "inputs": [
        {
          "internalType": "uint256",
          "name": "value",
          "type": "uint256"
        }
      ],
      "name": "Fixed6OverflowError",
      "type": "error"
    },
    {
      "inputs": [
        {
          "internalType": "uint256",
          "name": "version",
          "type": "uint256"
        }
      ],
      "name": "InitializableAlreadyInitializedError",
      "type": "error"
    },
    {
      "inputs": [],
      "name": "InitializableNotInitializingError",
      "type": "error"
    },
    {
      "inputs": [],
      "name": "InitializableZeroVersionError",
      "type": "error"
    },
    {
      "inputs": [],
      "name": "MultiInvokerCantExecuteError",
      "type": "error"
    },
    {
      "inputs": [],
      "name": "MultiInvokerInvalidInstanceError",
      "type": "error"
    },
    {
      "inputs": [],
      "name": "MultiInvokerInvalidOrderError",
      "type": "error"
    },
    {
      "inputs": [],
      "name": "MultiInvokerMaxFeeExceededError",
      "type": "error"
    },
    {
      "inputs": [],
      "name": "MultiInvokerOrderMustBeSingleSidedError",
      "type": "error"
    },
    {
      "inputs": [],
      "name": "MultiInvokerUnauthorizedError",
      "type": "error"
    },
    {
      "inputs": [],
      "name": "TriggerOrderStorageInvalidError",
      "type": "error"
    },
    {
      "inputs": [
        {
          "internalType": "int256",
          "name": "value",
          "type": "int256"
        }
      ],
      "name": "UFixed18UnderflowError",
      "type": "error"
    },
    {
      "inputs": [
        {
          "internalType": "int256",
          "name": "value",
          "type": "int256"
        }
      ],
      "name": "UFixed6UnderflowError",
      "type": "error"
    },
    {
      "anonymous": false,
      "inputs": [
        {
          "indexed": false,
          "internalType": "uint256",
          "name": "version",
          "type": "uint256"
        }
      ],
      "name": "Initialized",
      "type": "event"
    },
    {
      "anonymous": false,
      "inputs": [
        {
          "indexed": true,
          "internalType": "address",
          "name": "account",
          "type": "address"
        },
        {
          "indexed": true,
          "internalType": "contract IMarket",
          "name": "market",
          "type": "address"
        },
        {
          "components": [
            {
              "internalType": "UFixed6",
              "name": "amount",
              "type": "uint256"
            },
            {
              "internalType": "address",
              "name": "receiver",
              "type": "address"
            }
          ],
          "indexed": false,
          "internalType": "struct InterfaceFee",
          "name": "fee",
          "type": "tuple"
        }
      ],
      "name": "InterfaceFeeCharged",
      "type": "event"
    },
    {
      "anonymous": false,
      "inputs": [
        {
          "indexed": true,
          "internalType": "address",
          "name": "sender",
          "type": "address"
        },
        {
          "indexed": false,
          "internalType": "uint256",
          "name": "applicableGas",
          "type": "uint256"
        },
        {
          "indexed": false,
          "internalType": "uint256",
          "name": "applicableValue",
          "type": "uint256"
        },
        {
          "indexed": false,
          "internalType": "UFixed18",
          "name": "baseFee",
          "type": "uint256"
        },
        {
          "indexed": false,
          "internalType": "UFixed18",
          "name": "calldataFee",
          "type": "uint256"
        },
        {
          "indexed": false,
          "internalType": "UFixed18",
          "name": "keeperFee",
          "type": "uint256"
        }
      ],
      "name": "KeeperCall",
      "type": "event"
    },
    {
      "anonymous": false,
      "inputs": [
        {
          "indexed": true,
          "internalType": "address",
          "name": "account",
          "type": "address"
        },
        {
          "indexed": true,
          "internalType": "address",
          "name": "market",
          "type": "address"
        },
        {
          "indexed": true,
          "internalType": "address",
          "name": "to",
          "type": "address"
        },
        {
          "indexed": false,
          "internalType": "UFixed6",
          "name": "fee",
          "type": "uint256"
        }
      ],
      "name": "KeeperFeeCharged",
      "type": "event"
    },
    {
      "anonymous": false,
      "inputs": [
        {
          "indexed": true,
          "internalType": "address",
          "name": "account",
          "type": "address"
        },
        {
          "indexed": true,
          "internalType": "address",
          "name": "operator",
          "type": "address"
        },
        {
          "indexed": false,
          "internalType": "bool",
          "name": "newEnabled",
          "type": "bool"
        }
      ],
      "name": "OperatorUpdated",
      "type": "event"
    },
    {
      "anonymous": false,
      "inputs": [
        {
          "indexed": true,
          "internalType": "address",
          "name": "account",
          "type": "address"
        },
        {
          "indexed": true,
          "internalType": "contract IMarket",
          "name": "market",
          "type": "address"
        },
        {
          "indexed": false,
          "internalType": "uint256",
          "name": "nonce",
          "type": "uint256"
        }
      ],
      "name": "OrderCancelled",
      "type": "event"
    },
    {
      "anonymous": false,
      "inputs": [
        {
          "indexed": true,
          "internalType": "address",
          "name": "account",
          "type": "address"
        },
        {
          "indexed": true,
          "internalType": "contract IMarket",
          "name": "market",
          "type": "address"
        },
        {
          "indexed": false,
          "internalType": "uint256",
          "name": "nonce",
          "type": "uint256"
        }
      ],
      "name": "OrderExecuted",
      "type": "event"
    },
    {
      "anonymous": false,
      "inputs": [
        {
          "indexed": true,
          "internalType": "address",
          "name": "account",
          "type": "address"
        },
        {
          "indexed": true,
          "internalType": "contract IMarket",
          "name": "market",
          "type": "address"
        },
        {
          "indexed": true,
          "internalType": "uint256",
          "name": "nonce",
          "type": "uint256"
        },
        {
          "components": [
            {
              "internalType": "uint8",
              "name": "side",
              "type": "uint8"
            },
            {
              "internalType": "int8",
              "name": "comparison",
              "type": "int8"
            },
            {
              "internalType": "UFixed6",
              "name": "fee",
              "type": "uint256"
            },
            {
              "internalType": "Fixed6",
              "name": "price",
              "type": "int256"
            },
            {
              "internalType": "Fixed6",
              "name": "delta",
              "type": "int256"
            },
            {
              "components": [
                {
                  "internalType": "UFixed6",
                  "name": "amount",
                  "type": "uint256"
                },
                {
                  "internalType": "address",
                  "name": "receiver",
                  "type": "address"
                }
              ],
              "internalType": "struct InterfaceFee",
              "name": "interfaceFee1",
              "type": "tuple"
            },
            {
              "components": [
                {
                  "internalType": "UFixed6",
                  "name": "amount",
                  "type": "uint256"
                },
                {
                  "internalType": "address",
                  "name": "receiver",
                  "type": "address"
                }
              ],
              "internalType": "struct InterfaceFee",
              "name": "interfaceFee2",
              "type": "tuple"
            }
          ],
          "indexed": false,
          "internalType": "struct TriggerOrder",
          "name": "order",
          "type": "tuple"
        }
      ],
      "name": "OrderPlaced",
      "type": "event"
    },
    {
      "inputs": [],
      "name": "ARB_FIXED_OVERHEAD",
      "outputs": [
        {
          "internalType": "uint256",
          "name": "",
          "type": "uint256"
        }
      ],
      "stateMutability": "view",
      "type": "function"
    },
    {
      "inputs": [],
      "name": "ARB_GAS_MULTIPLIER",
      "outputs": [
        {
          "internalType": "uint256",
          "name": "",
          "type": "uint256"
        }
      ],
      "stateMutability": "view",
      "type": "function"
    },
    {
      "inputs": [],
      "name": "DSU",
      "outputs": [
        {
          "internalType": "Token18",
          "name": "",
          "type": "address"
        }
      ],
      "stateMutability": "view",
      "type": "function"
    },
    {
      "inputs": [],
      "name": "USDC",
      "outputs": [
        {
          "internalType": "Token6",
          "name": "",
          "type": "address"
        }
      ],
      "stateMutability": "view",
      "type": "function"
    },
    {
      "inputs": [],
      "name": "batcher",
      "outputs": [
        {
          "internalType": "contract IBatcher",
          "name": "",
          "type": "address"
        }
      ],
      "stateMutability": "view",
      "type": "function"
    },
    {
      "inputs": [
        {
          "internalType": "address",
          "name": "account",
          "type": "address"
        },
        {
          "internalType": "contract IMarket",
          "name": "market",
          "type": "address"
        },
        {
          "internalType": "uint256",
          "name": "nonce",
          "type": "uint256"
        }
      ],
      "name": "canExecuteOrder",
      "outputs": [
        {
          "internalType": "bool",
          "name": "",
          "type": "bool"
        }
      ],
      "stateMutability": "view",
      "type": "function"
    },
    {
      "inputs": [
        {
          "internalType": "address",
          "name": "account",
          "type": "address"
        },
        {
          "internalType": "bool",
          "name": "unwrap",
          "type": "bool"
        }
      ],
      "name": "claim",
      "outputs": [],
      "stateMutability": "nonpayable",
      "type": "function"
    },
    {
      "inputs": [
        {
          "internalType": "address",
          "name": "",
          "type": "address"
        }
      ],
      "name": "claimable",
      "outputs": [
        {
          "internalType": "UFixed6",
          "name": "",
          "type": "uint256"
        }
      ],
      "stateMutability": "view",
      "type": "function"
    },
    {
      "inputs": [],
      "name": "ethTokenOracleFeed",
      "outputs": [
        {
          "internalType": "contract AggregatorV3Interface",
          "name": "",
          "type": "address"
        }
      ],
      "stateMutability": "view",
      "type": "function"
    },
    {
      "inputs": [
        {
          "internalType": "contract AggregatorV3Interface",
          "name": "ethOracle_",
          "type": "address"
        }
      ],
      "name": "initialize",
      "outputs": [],
      "stateMutability": "nonpayable",
      "type": "function"
    },
    {
      "inputs": [
        {
          "components": [
            {
              "internalType": "enum IMultiInvoker.PerennialAction",
              "name": "action",
              "type": "uint8"
            },
            {
              "internalType": "bytes",
              "name": "args",
              "type": "bytes"
            }
          ],
          "internalType": "struct IMultiInvoker.Invocation[]",
          "name": "invocations",
          "type": "tuple[]"
        }
      ],
      "name": "invoke",
      "outputs": [],
      "stateMutability": "payable",
      "type": "function"
    },
    {
      "inputs": [
        {
          "internalType": "address",
          "name": "account",
          "type": "address"
        },
        {
          "components": [
            {
              "internalType": "enum IMultiInvoker.PerennialAction",
              "name": "action",
              "type": "uint8"
            },
            {
              "internalType": "bytes",
              "name": "args",
              "type": "bytes"
            }
          ],
          "internalType": "struct IMultiInvoker.Invocation[]",
          "name": "invocations",
          "type": "tuple[]"
        }
      ],
      "name": "invoke",
      "outputs": [],
      "stateMutability": "payable",
      "type": "function"
    },
    {
      "inputs": [],
      "name": "keepBufferBase",
      "outputs": [
        {
          "internalType": "uint256",
          "name": "",
          "type": "uint256"
        }
      ],
      "stateMutability": "view",
      "type": "function"
    },
    {
      "inputs": [],
      "name": "keepBufferCalldata",
      "outputs": [
        {
          "internalType": "uint256",
          "name": "",
          "type": "uint256"
        }
      ],
      "stateMutability": "view",
      "type": "function"
    },
    {
      "inputs": [],
      "name": "keeperToken",
      "outputs": [
        {
          "internalType": "Token18",
          "name": "",
          "type": "address"
        }
      ],
      "stateMutability": "view",
      "type": "function"
    },
    {
      "inputs": [],
      "name": "latestNonce",
      "outputs": [
        {
          "internalType": "uint256",
          "name": "",
          "type": "uint256"
        }
      ],
      "stateMutability": "view",
      "type": "function"
    },
    {
      "inputs": [],
      "name": "makerVaultFactory",
      "outputs": [
        {
          "internalType": "contract IFactory",
          "name": "",
          "type": "address"
        }
      ],
      "stateMutability": "view",
      "type": "function"
    },
    {
      "inputs": [],
      "name": "marketFactory",
      "outputs": [
        {
          "internalType": "contract IFactory",
          "name": "",
          "type": "address"
        }
      ],
      "stateMutability": "view",
      "type": "function"
    },
    {
      "inputs": [
        {
          "internalType": "address",
          "name": "",
          "type": "address"
        },
        {
          "internalType": "address",
          "name": "",
          "type": "address"
        }
      ],
      "name": "operators",
      "outputs": [
        {
          "internalType": "bool",
          "name": "",
          "type": "bool"
        }
      ],
      "stateMutability": "view",
      "type": "function"
    },
    {
      "inputs": [
        {
          "internalType": "address",
          "name": "account",
          "type": "address"
        },
        {
          "internalType": "contract IMarket",
          "name": "market",
          "type": "address"
        },
        {
          "internalType": "uint256",
          "name": "nonce",
          "type": "uint256"
        }
      ],
      "name": "orders",
      "outputs": [
        {
          "components": [
            {
              "internalType": "uint8",
              "name": "side",
              "type": "uint8"
            },
            {
              "internalType": "int8",
              "name": "comparison",
              "type": "int8"
            },
            {
              "internalType": "UFixed6",
              "name": "fee",
              "type": "uint256"
            },
            {
              "internalType": "Fixed6",
              "name": "price",
              "type": "int256"
            },
            {
              "internalType": "Fixed6",
              "name": "delta",
              "type": "int256"
            },
            {
              "components": [
                {
                  "internalType": "UFixed6",
                  "name": "amount",
                  "type": "uint256"
                },
                {
                  "internalType": "address",
                  "name": "receiver",
                  "type": "address"
                }
              ],
              "internalType": "struct InterfaceFee",
              "name": "interfaceFee1",
              "type": "tuple"
            },
            {
              "components": [
                {
                  "internalType": "UFixed6",
                  "name": "amount",
                  "type": "uint256"
                },
                {
                  "internalType": "address",
                  "name": "receiver",
                  "type": "address"
                }
              ],
              "internalType": "struct InterfaceFee",
              "name": "interfaceFee2",
              "type": "tuple"
            }
          ],
          "internalType": "struct TriggerOrder",
          "name": "",
          "type": "tuple"
        }
      ],
      "stateMutability": "view",
      "type": "function"
    },
    {
      "inputs": [],
      "name": "reserve",
      "outputs": [
        {
          "internalType": "contract IEmptySetReserve",
          "name": "",
          "type": "address"
        }
      ],
      "stateMutability": "view",
      "type": "function"
    },
    {
      "inputs": [],
      "name": "solverVaultFactory",
      "outputs": [
        {
          "internalType": "contract IFactory",
          "name": "",
          "type": "address"
        }
      ],
      "stateMutability": "view",
      "type": "function"
    },
    {
      "inputs": [
        {
          "internalType": "address",
          "name": "operator",
          "type": "address"
        },
        {
          "internalType": "bool",
          "name": "newEnabled",
          "type": "bool"
        }
      ],
      "name": "updateOperator",
      "outputs": [],
      "stateMutability": "nonpayable",
      "type": "function"
    }
  ],
  "transactionHash": "0xb95ab737e7cd899f9db0f755f0e9d1900b14f473701021b39a90127adc0f96af",
  "args": [
    "0xEd64A15A6223588794A976d344990001a065F3f1",
    "0x5FA881826AD000D010977645450292701bc2f56D",
    "0x247CeaE79E5C5778e00F449eDEC1d49c06f1Ede8",
    "0x8dd31A3eB73c13D535b2F615b1c5C8D761162436",
    "0x945E4c081D9da869D61dc7bdC6682B54b197eb2D",
    "0x0000000000000000000000000000000000000000",
    "0x841d7C994aC0Bb17CcD65a021E686e3cFafE2118",
    1500000,
    35200
  ],
  "numDeployments": 1,
  "solcInputHash": "6fb69e1fc21b81495dddbcb7fb118352",
  "bytecode": "0x6101a034620002c957620058bf38819003601f8101601f191683016001600160401b03811184821017620002cd5783928291604052833961012091829181010312620002c9576200005082620002e1565b6200005e60208401620002e1565b6200006c60408501620002e1565b6200007a60608601620002e1565b6200008860808701620002e1565b60a08701516001600160a01b03939092908484168403620002c95760c08901519485168503620002c95760e089015195610100809a01519760805260a05260c05260e05286528452610140908152610160918252610180928352604051936155c89586620002f787396080518681816123e20152818161420c015281816149ea01528181614af601528181614efa015261502b015260a05186818161038d0152818161047f01528181610901015281816115690152818161166101528181611ba001528181611cd301528181611cfa01528181611e5d0152818161233801528181612604015281816126e701528181612b3a01528181612bdf015281816135fe015281816136f601528181613bd501528181613cf301528181613e410152818161416301528181614b4501528181614fe9015261505e015260c05186818161034e015281816106c101528181610baf0152818161152a01528181611e0b0152818161205a015281816125c50152818161290201528181612dc4015281816135bf01528181613df30152818161401b0152614422015260e0518681816108bd01528181611f3401528181612af001528181613f0501526142d8015251858181610a1f01528181611e9e01528181612c4201528181613e7b015261431c01525184818161239001528181614463015281816149b80152614f2801525183818161228b015281816123b901528181614a180152614f5a01525182818161105a015281816121ea0152613156015251818181611086015281816121b001526131820152f35b5f80fd5b634e487b7160e01b5f52604160045260245ffd5b51906001600160a01b0382168203620002c95756fe6080806040526004361015610012575f80fd5b5f3560e01c908163025a3a29146144515750806306ae70951461440d5780632637588e146143b757806332878cc914614383578063402914f51461434b57806344fb2b4b146143075780635b770dce146142c35780636d44a3b21461425657806378fab5c71461423b57806389a30271146141f757806392fd2daf14614192578063a2060bcf1461414e578063aba30dfa14614133578063b20caf45146140ff578063bdec4a271461247a578063c4d66de8146122ba578063cd3293de14612276578063cf542a4d1461225a578063dd02df1614612230578063df80522a1461220d578063f331efef146121d3578063f3a8f356146121995763f5ad712614610119575f80fd5b60403660031901126104f85761012d614492565b6024356001600160401b0381116104f85761014c9036906004016144d7565b906001600160a01b03831633141580612170575b61215e575f5b82811061023a57478047106101f5575f80808093335af1610185614e2e565b501561018d57005b60405162461bcd60e51b815260206004820152603a60248201527f416464726573733a20756e61626c6520746f2073656e642076616c75652c20726044820152791958da5c1a595b9d081b585e481a185d99481c995d995c9d195960321b6064820152608490fd5b60405162461bcd60e51b815260206004820152601d60248201527f416464726573733a20696e73756666696369656e742062616c616e63650000006044820152606490fd5b8060051b820135603e19833603018112156104f85782016040813603126104f85760405190610268826145b4565b8035600b8110156104f857825260208101356001600160401b0381116104f85736601f8284010112156104f8576102a791369101803590602001614b84565b60208201528051600b81101561214a576001036105685760200151908151820161014083602083019203126104f8576102e260208401614bba565b9260408101519360608201519160808101519060a08101519361032261030a60c08401614854565b9661012061031b8260e08701614c31565b9401614c31565b60405163032bb44360e01b81526001600160a01b038681166004830152919691602090829060249082907f0000000000000000000000000000000000000000000000000000000000000000165afa9081156104ed575f9161052e575b501561051c576103b66103b1307f0000000000000000000000000000000000000000000000000000000000000000614e5d565b615082565b938c8860016103c4856150aa565b14610502575b505060208401516001600160a01b0316806104fc575060208701516001600160a01b0316925b6001600160a01b0387163b156104f8578d9a6040519b63977b1f5f60e01b8d5260018060a01b031660048d015260248c015260448b015260648a015260848901525f60a489015260018060a01b031660c48801525f8760e4818360018060a01b0388165af19485156104ed5764e8d4a510006104a86104b99460019a6104bf996104de575b506104a36103b1307f0000000000000000000000000000000000000000000000000000000000000000614e5d565b6150c6565b0590816104c5575b5050828a6150de565b876150de565b01610166565b6104d16104d792615393565b8c614b26565b5f806104b0565b6104e7906145cf565b5f610475565b6040513d5f823e3d90fd5b5f80fd5b926103f0565b6105159161050f85615393565b90615019565b8c886103ca565b60405163047b7c1b60e41b8152600490fd5b90506020813d602011610560575b8161054960209383614686565b810103126104f85761055a90614854565b5f61037e565b3d915061053c565b8051600b81101561214a5760090361083a57602001519081518201916101c0818403126104f85761059b60208201614bba565b92610180828203601f1901126104f857604051916105b883614619565b6040810151835260608101516020840152608081015160408401526105df60a08201614bba565b60608401526105f060c08201614bba565b608084015260e081015160a084015260c081830360df1901126104f85760405161061981614650565b6106266101008301614bba565b81526106356101208301614bba565b60208201526106476101408301614bba565b6040820152610160820151606082015261018082015160808201526101a082015160a082015260c08401526101c0810151916001600160401b0383116104f857610698926020809201920101614bef565b60405163032bb44360e01b81526001600160a01b038581166004830152602090829060249082907f0000000000000000000000000000000000000000000000000000000000000000165afa9081156104ed575f91610800575b501561051c576001600160a01b0384163b156104f8576040805163736a01df60e01b81526001600160a01b03808a16600483015284516024830152602080860151604484015283860151606484015260608087015183166084850152608080880151841660a486015260a08881015160c487015260c0909801518051851660e48701529283015184166101048601529482015190921661012484015290810151610144830152918201516101648201529201516101848301526101c06101a483015290925f918491908290849082906107cf906101c4830190614e09565b03926001600160a01b03165af19182156104ed576001926107f1575b506104bf565b6107fa906145cf565b5f6107eb565b90506020813d602011610832575b8161081b60209383614686565b810103126104f85761082c90614854565b5f6106f1565b3d915061080e565b8051600b81101561214a57600203610aca57602001519081805160a0938491810103126104f85760208101516001600160a01b03811681036104f85760408201519061089160608401519560808501519401614854565b60405163032bb44360e01b81526001600160a01b038381166004830152919491602090829060249082907f0000000000000000000000000000000000000000000000000000000000000000165afa9081156104ed575f91610a90575b5015806109f5575b61051c57826109e5575b7f00000000000000000000000000000000000000000000000000000000000000009161092b3084614e5d565b936001600160a01b0382163b156104f857604051636961d57960e11b81526001600160a01b03808d16600483015260248201929092526044810198909852606488018390525f91889160849183918591165af19586156104ed576001966109d6575b506109b55750505f905b816109a4575b50506104bf565b6109ae9187614b26565b5f8061099d565b64e8d4a51000916109ca6109cf923090614e5d565b614dfc565b0490610997565b6109df906145cf565b5f61098d565b6109f084848b615019565b6108ff565b5060405163032bb44360e01b81526001600160a01b038381166004830152602090829060249082907f0000000000000000000000000000000000000000000000000000000000000000165afa9081156104ed575f91610a56575b50156108f5565b90506020813d602011610a88575b81610a7160209383614686565b810103126104f857610a8290614854565b5f610a4f565b3d9150610a64565b90506020813d602011610ac2575b81610aab60209383614686565b810103126104f857610abc90614854565b5f6108ed565b3d9150610a9e565b8051600b81101561214a57600303610f4257602001519081518201918083039261014084126104f857610120610b0260208401614bba565b94601f1901126104f85760405191610b1983614619565b604081015160ff811681036104f8578352606081015191825f0b83036104f857602061012091610b8194828701526080840151604087015260a0840151606087015260c08401516080870152610b7482820160e08601614c31565b60a0870152019101614c31565b60c082015260405163032bb44360e01b81526001600160a01b038481166004830152602090829060249082907f0000000000000000000000000000000000000000000000000000000000000000165afa9081156104ed575f91610f08575b501561051c57604081015115610eae5760208101515f0b5f198114159081610efc575b50610eae5760ff81511660038111908115610ec0575b50610eae576001600160a01b038681165f908152600160209081526040808320938716835292905290812090545f198114610e9a57600101805f555f5260205260405f209260ff8083511611610e8857607f60208301515f0b13610e8857607f1960208301515f0b12610e88576002610c946040840151615245565b14610e88576002610ca8606084015161543f565b14610e8857610cba606083015161540c565b15610e88576002610cce608084015161543f565b14610e8857610ce0608083015161540c565b15610e88576002610cf560a08401515161526a565b14610e88576002610d0a60c08401515161526a565b14610e885765ffffffffffff60c0610e4b84600197600260ff83511691602084015192604085015160608601519060808701519261ff0060a0890151976001610160815f9260a01b0360208c0151169e8f9b51169d8e9c01519a60018c60208265ffffffffffff9360a01b03910151169c51169c60405191610d8b83614634565b87835285850b602084015260018060401b03891660408401528960070b60608401528a60070b60808401528460a084015260c083015260e0820152826101008201528b6101208201528c610140820152015260081b161790620100008f60501b039060101b1617908d60501b8e60901b039060501b1617908c60901b8d60d01b039060901b16178155610e308b8201968c8060a01b0319988989541617885587614ec8565b8a8060d01b0395868154169055019485541617845583614ec8565b81541690555f54915f8051602061551383398151915260405192868060a01b03169280610e80888060a01b038c169482614554565b0390a46104bf565b60405163f3469aa760e01b8152600490fd5b634e487b7160e01b5f52601160045260245ffd5b6040516316d7df6b60e31b8152600490fd5b600391501480610ed1575b5f610c18565b50610edf6080820151615427565b60028114908115610ef1575b50610ecb565b60019150145f610eeb565b6001915014155f610c02565b90506020813d602011610f3a575b81610f2360209383614686565b810103126104f857610f3490614854565b5f610bdf565b3d9150610f16565b8051600b81101561214a57600403610fdb5760200151906040828051810103126104f857816040610f77602060019501614bba565b910151838060a01b0387165f528360205260405f2091848060a01b031691825f5260205260405f20815f526020525f600260408220828155828782015501556040519081525f805160206154f38339815191526020858060a01b03891692a36104bf565b8051600b81101561214a57600503611aa75760200151906060828051810103126104f85761100b60208301614bba565b606061101960408501614bba565b93015161103081856001600160a01b038516614861565b15611a955761104981856001600160a01b038516614708565b604051611055816145e2565b5f81527f000000000000000000000000000000000000000000000000000000000000000060208201525f60408201527f0000000000000000000000000000000000000000000000000000000000000000606082015260408201516040519060018060a01b038616602083015260018060a01b03881660408301526060820152606081526110e1816145e2565b6040516110ed8161466b565b5f81525f6020820152670de0b6b3a764000061112c845161112783611116602089015193614d67565b046111214893614d4a565b906152cf565b614d75565b049260606040820151910151915190608c82018211610e9a57608c8281016001600160fc1b0316830301610e9a5760405163f5d6ded760e01b815291602083600481606c5afa9283156104ed575f93611a57575b50670de0b6b3a764000093611121856111a96111b09695611127608c611127970160041b614d4a565b0491614d4a565b04906111bc82846152cf565b5f8051602061553383398151915254604051633fabe5a360e21b81529060a090829060049082906001600160a01b03165afa9081156104ed575f91611a0a575b5080670de0b6b3a7640000810205670de0b6b3a76400001481151715610e9a575f6305f5e100670de0b6b3a7640000830205126119e257670de0b6b3a7640000916305f5e1008361124f93020590614d75565b04906060818051810103126104f85761126a60208201614bba565b606061127860408401614bba565b92015192806119b357506112a9906112ae935f905b808210156119a957509283915b6001600160a01b0316906153a2565b614d88565b906112c882335f8051602061557383398151915254614da2565b604051925f84525f60208501526040840152606083015260808201525f8051602061555383398151915260a03392a26001600160a01b0385163b156104f857604051636a256b2960e01b81526001600160a01b0384811660048301525f908290602490829084908b165af180156104ed5761199a575b5060405162dc326d60e71b81526001600160a01b0384811660048301526101a090829060249082908a165afa9081156104ed575f916118d8575b5060405163055f575160e41b81526001600160a01b0385811660048301529096906080908890602490829085165afa9687156104ed575f97611877575b50815187526113c760208801516152f0565b6113ea6113d760608501516152f0565b6113e460808601516152f0565b906150c6565b80808301125f8312908015821691151617610e9a576114099101615319565b9161141760408901516152f0565b61143461142760a08401516152f0565b6113e460c08501516152f0565b80808301125f8312908015821691151617610e9a576114539101615319565b9061148061146460608b01516152f0565b916113e461010061147860e08401516152f0565b9201516152f0565b80808301125f8312908015821691151617610e9a5761149f9101615319565b606089015260408801528160208801525f9160ff8451161561182b575b50600160ff845116146117e1575b600260ff84511614611797575b600360ff8451161461176e575b602087015191606060408901519801519760c060a08601519501519160405163032bb44360e01b815260018060a01b038516600482015260208160248160018060a01b037f0000000000000000000000000000000000000000000000000000000000000000165afa9081156104ed575f91611734575b501561051c5761158d6103b1307f0000000000000000000000000000000000000000000000000000000000000000614e5d565b996001611599836150aa565b14611714575b60208701516001600160a01b03168061170e575060208401516001600160a01b0316925b6001600160a01b0386163b156104f8576040519663977b1f5f60e01b885260018060a01b038b16600489015260248801526044870152606486015260848501525f60a485015260018060a01b031660c48401525f8360e4818360018060a01b0387165af19081156104ed5761169b5f805160206154d38339815191529564e8d4a5100061168560019c6020986116a9976104de57506104a36103b1307f0000000000000000000000000000000000000000000000000000000000000000614e5d565b05806116ef575b50848b8060a01b038a166150de565b82898060a01b0388166150de565b60a087901b8790039485165f8181528884526040808220939097168082529284528681208682528452868120818155808a018290556002015594519384529392a36104bf565b6116fb61170891615393565b8c8060a01b038b166149a2565b5f61168c565b926115c3565b61172f61172083615393565b6001600160a01b038b16614eef565b61159f565b90506020813d602011611766575b8161174f60209383614686565b810103126104f85761176090614854565b5f61155a565b3d9150611742565b9050608082015160016117808261540c565b036117925750600160ff1b5b906114e4565b61178c565b6080830180516117ae57505f5b60608801526114d7565b6117bb60608901516152f0565b905180808301125f8312908015821691151617610e9a576117dc9101615319565b6117a4565b6080830180516117f857505f5b60408801526114ca565b61180560408901516152f0565b905180808301125f8312908015821691151617610e9a576118269101615319565b6117ee565b60808401908151155f146118485750505f5b60208801525f6114bc565b611851906152f0565b905180808301125f8312908015821691151617610e9a576118729101615319565b61183d565b9096506080813d6080116118d0575b8161189360809383614686565b810103126104f8576060604051916118aa836145e2565b80518352602081015160208401526040810151604084015201516060820152955f6113b5565b3d9150611886565b90506101a0813d6101a011611992575b816118f66101a09383614686565b810103126104f8576040519061190b826145fd565b805182526020810151602083015260408101516040830152606081015160608301526080810151608083015260a081015160a083015260c0808201519083015260e081015160e0830152610100808201519083015261012080820151908301526101408082015190830152610160808201519083015261018080910151908201525f611378565b3d91506118e8565b6119a3906145cf565b5f61133e565b905092839161129a565b5f198101908111610e9a5764e8d4a51000900490600182018211610e9a576112ae9360016112a993019061128d565b6024906305f5e100670de0b6b3a76400006040519263280f944f60e11b845202056004820152fd5b905060a0813d60a011611a4f575b81611a2560a09383614686565b810103126104f857611a36816152dc565b50611a486080602083015192016152dc565b505f6111fc565b3d9150611a18565b9250906020833d602011611a8d575b81611a7360209383614686565b810103126104f85791519190670de0b6b3a7640000611180565b3d9150611a66565b6040516337a314b160e11b8152600490fd5b8051600b81101561214a57600603611db357602001518051810160c0828203126104f857611ad760208301614bba565b6040830151606084015191906001600160401b0383116104f85760208401603f8487010112156104f85784830160200151926001600160401b038411611d9f578360051b9060405194611b2d6020840187614686565b855260208501809260208801604082858c010101116104f8576040838a0101915b604082858c0101018310611d8f5750505050608086015160a08701519095906001600160401b0381116104f857611b9260c091602080611b999501918b0101614bef565b9701614854565b95611bc4307f0000000000000000000000000000000000000000000000000000000000000000614e5d565b604051639fa6a6e360e01b81529096906020816004816001600160a01b038a165afa9081156104ed575f91611d5d575b50805f19810111610e9a575f198101421015611d555750425b80821015611d4e57505b6001600160a01b0385163b156104f8576040516301e298b960e41b815260606004820152955160648701819052869493608486019392915f905b808210611d3257505050611c7c85935f97959385936024850152600319848303016044850152614e09565b03926001600160a01b03165af19081611d23575b50611cc15750611c9e614e2e565b90611cac57506001906104bf565b60405190611cb98261466b565b5f8252615294565b6001929150611cf7611d1e916109ca307f0000000000000000000000000000000000000000000000000000000000000000614e5d565b337f0000000000000000000000000000000000000000000000000000000000000000614da2565b6104bf565b611d2c906145cf565b5f611c90565b8251865289975060209586019590920191600190910190611c51565b9050611c17565b5f1901611c0d565b90506020813d602011611d87575b81611d7860209383614686565b810103126104f857515f611bf4565b3d9150611d6b565b8251815260209283019201611b4e565b634e487b7160e01b5f52604160045260245ffd5b8051600b81101561214a57600803611fe757602001516020818051810103126104f8576001600160a01b0390611deb90602001614bba565b60405163032bb44360e01b815291166004820181905291906020816024817f00000000000000000000000000000000000000000000000000000000000000006001600160a01b03165afa9081156104ed575f91611fad575b501580611f17575b80611e81575b61051c57611d1e6001927f0000000000000000000000000000000000000000000000000000000000000000614c60565b5060405163032bb44360e01b8152600481018390526020816024817f00000000000000000000000000000000000000000000000000000000000000006001600160a01b03165afa9081156104ed575f91611edd575b5015611e51565b90506020813d602011611f0f575b81611ef860209383614686565b810103126104f857611f0990614854565b5f611ed6565b3d9150611eeb565b5060405163032bb44360e01b8152600481018390526020816024817f00000000000000000000000000000000000000000000000000000000000000006001600160a01b03165afa9081156104ed575f91611f73575b5015611e4b565b90506020813d602011611fa5575b81611f8e60209383614686565b810103126104f857611f9f90614854565b5f611f6c565b3d9150611f81565b90506020813d602011611fdf575b81611fc860209383614686565b810103126104f857611fd990614854565b5f611e43565b3d9150611fbb565b8051600b81101561214a57600a14612003575b506001906104bf565b60200151906040828051810103126104f85761202d604061202660208501614bba565b9301614854565b60405163032bb44360e01b81526001600160a01b03938416600482018190529193602090829060249082907f0000000000000000000000000000000000000000000000000000000000000000165afa9081156104ed575f91612110575b501561051c57604051636ebc51e160e01b81526001600160a01b038716600482015290602090829060249082905f905af19081156104ed575f916120dd575b506001926120d79187614b26565b90611ffa565b90506020813d602011612108575b816120f860209383614686565b810103126104f8575160016120c9565b3d91506120eb565b90506020813d602011612142575b8161212b60209383614686565b810103126104f85761213c90614854565b5f61208a565b3d915061211e565b634e487b7160e01b5f52602160045260245ffd5b6040516342ecdedb60e01b8152600490fd5b5060018060a01b0383165f52600260205260405f20335f5260205260ff60405f20541615610160565b346104f8575f3660031901126104f85760206040517f00000000000000000000000000000000000000000000000000000000000000008152f35b346104f8575f3660031901126104f85760206040517f00000000000000000000000000000000000000000000000000000000000000008152f35b346104f857602061222661222036614507565b91614861565b6040519015158152f35b346104f85761225661224a61224436614507565b91614708565b60405191829182614554565b0390f35b346104f8575f3660031901126104f85760205f54604051908152f35b346104f8575f3660031901126104f8576040517f00000000000000000000000000000000000000000000000000000000000000006001600160a01b03168152602090f35b346104f85760203660031901126104f8576004356001600160a01b03818116918290036104f8577f6fee9688c285c5c5c97d6a1a29adced674e6b2ad0888b8ad2116b58a8b3ea24860028154101561246157600290557f2801b00eb06461cf9fcb9758b5fafd884ff06a86177386f73b6c49f0bf5a5af090600182557f0000000000000000000000000000000000000000000000000000000000000000303b15158061245a575b612448576123e0612406925f955f8051602061553383398151915255825f8051602061557383398151915255807f00000000000000000000000000000000000000000000000000000000000000001680612434575b507f0000000000000000000000000000000000000000000000000000000000000000168092614c60565b7f0000000000000000000000000000000000000000000000000000000000000000614c60565b557fbe9b076dc5b65990cca9dd9d7366682482e7817a6f6bc7f4faf4dc32af497f32602060405160028152a1005b806123e06124429286614c60565b866123b6565b60405163b9a621e160e01b8152600490fd5b505f612361565b604051631edb9c6d60e11b815260026004820152602490fd5b60203660031901126104f8576004356001600160401b0381116104f8576124a59036906004016144d7565b905f5b8281106124c757478047106101f5575f80808093335af1610185614e2e565b8060051b820135603e19833603018112156104f85782016040813603126104f857604051906124f5826145b4565b600b908035828110156104f85783526020810135906001600160401b0382116104f8570136601f820112156104f857612535903690602081359101614b84565b916020810192835280518281101561214a576001036127a857505051908151820161014083602083019203126104f85761257160208401614bba565b9260408101519360608201519160808101519060a08101519361259961030a60c08401614854565b60405163032bb44360e01b81526001600160a01b038681166004830152919691602090829060249082907f0000000000000000000000000000000000000000000000000000000000000000165afa9081156104ed575f9161276e575b501561051c576126286103b1307f0000000000000000000000000000000000000000000000000000000000000000614e5d565b936001612634836150aa565b14612756575b60208401516001600160a01b031680612750575060208701516001600160a01b0316925b6001600160a01b0387163b156104f85760405163977b1f5f60e01b8152336004820152602481019b909b5260448b015260648a015260848901525f60a489018190526001600160a01b0391821660c48a015290889060e4908290849088165af19485156104ed5764e8d4a5100061270b61271c9460019a6127229961274157506104a36103b1307f0000000000000000000000000000000000000000000000000000000000000000614e5d565b059081612728575b505082336150de565b336150de565b016124a8565b61273461273a92615393565b33614b26565b8980612713565b61274a906145cf565b8d610475565b9261265e565b6127698861276384615393565b33615019565b61263a565b90506020813d6020116127a0575b8161278960209383614686565b810103126104f85761279a90614854565b8c6125f5565b3d915061277c565b80518281101561214a57600903612a78575050519081518201916101c0818403126104f8576127d960208201614bba565b92610180828203601f1901126104f857604051906127f682614619565b60408301518252606083015160208301526080830151604083015261281d60a08401614bba565b606083015260c092612830848201614bba565b608084015260e081015160a08401528360df1982840301126104f85760405161285881614650565b6128656101008301614bba565b81526128746101208301614bba565b60208201526128866101408301614bba565b6040820152610160820151606082015261018082015160808201526101a082015160a0820152838501526101c0810151916001600160401b0383116104f8576128d6926020809201920101614bef565b60405163032bb44360e01b81526001600160a01b038087166004830152919591602090829060249082907f0000000000000000000000000000000000000000000000000000000000000000165afa9081156104ed575f91612a3e575b501561051c576001600160a01b0381163b156104f8576040805163736a01df60e01b81523360048201528351602482015260208085015160448301528483015160648301526060808601516001600160a01b039081166084850152608080880151821660a486015260a08089015160c487015298909701518051821660e4860152928301518116610104850152938201519093166101248301529182015161014482015292810151610164840152909201516101848201526101c06101a4820152925f918491829084908290612a0d906101c4830190614e09565b03926001600160a01b03165af19182156104ed57600192612a2f575b50612722565b612a38906145cf565b84612a29565b90506020813d602011612a70575b81612a5960209383614686565b810103126104f857612a6a90614854565b88612932565b3d9150612a4c565b80518281101561214a57600203612cee575050519081805160a0918291810103126104f8576020830151926001600160a01b039081851685036104f8576040810151612acf60608301519460808401519301614854565b9360405163032bb44360e01b908181528589166004820152602081602481897f0000000000000000000000000000000000000000000000000000000000000000165afa9081156104ed575f91612cb4575b50159081612c29575b5061051c5781612c19575b612b5e307f0000000000000000000000000000000000000000000000000000000000000000614e5d565b938088163b156104f8575f92836084926040519a8b958694636961d57960e11b865233600487015260248601526044850152876064850152165af19485156104ed57600195612c0a575b50612bcf57505f905b81612bbe575b5050612722565b612bc89133614b26565b8480612bb7565b612c0364e8d4a51000916109ca307f0000000000000000000000000000000000000000000000000000000000000000614e5d565b0490612bb1565b612c13906145cf565b87612ba8565b612c24858333615019565b612b34565b90506040519081528488166004820152602081602481887f0000000000000000000000000000000000000000000000000000000000000000165afa9081156104ed575f91612c7a575b50158a612b29565b90506020813d602011612cac575b81612c9560209383614686565b810103126104f857612ca690614854565b8a612c72565b3d9150612c88565b90506020813d602011612ce6575b81612ccf60209383614686565b810103126104f857612ce090614854565b8b612b20565b3d9150612cc2565b80518281101561214a57600303613050575050519081518201918083039261014084126104f857610120612d2460208401614bba565b94601f1901126104f85760405191612d3b83614619565b604081015160ff811681036104f8578352606081015191825f0b83036104f857602061012091612d9694828701526080840151604087015260a0840151606087015260c08401516080870152610b7482820160e08601614c31565b60c082015260405163032bb44360e01b81526001600160a01b038481166004830152602090829060249082907f0000000000000000000000000000000000000000000000000000000000000000165afa9081156104ed575f91613016575b501561051c57604081015115610eae5760208101515f0b5f19811415908161300a575b50610eae5760ff81511660038111908115612fce575b50610eae57335f52600160205260405f2060018060a01b0384165f5260205260405f205f545f198114610e9a57600101805f555f5260205260405f209260ff8083511611610e8857607f60208301515f0b13610e8857607f1960208301515f0b12610e88576002612ea16040840151615245565b14610e88576002612eb5606084015161543f565b14610e8857612ec7606083015161540c565b15610e88576002612edb608084015161543f565b14610e8857612eed608083015161540c565b15610e88576002612f0260a08401515161526a565b14610e88576002612f1760c08401515161526a565b14610e885765ffffffffffff60c0612f9884600197600260ff83511691602084015192604085015160608601519060808701519261ff0060a0890151976001610160815f9260a01b0360208c0151169e8f9b51169d8e9c01519a60018c60208265ffffffffffff9360a01b03910151169c51169c60405191610d8b83614634565b81541690555f54915f8051602061551383398151915260405192868060a01b03169280612fc6339482614554565b0390a4612722565b600391501480612fdf575b86612e2d565b50612fed6080820151615427565b60028114908115612fff575b50612fd9565b600191501486612ff9565b60019150141586612e17565b90506020813d602011613048575b8161303160209383614686565b810103126104f85761304290614854565b86612df4565b3d9150613024565b80518281101561214a576004036130d957505051906040828051810103126104f857816040613083602060019501614bba565b910151335f528360205260405f2091848060a01b031691825f5260205260405f20815f526020525f600260408220828155828782015501556040519081525f805160206154f383398151915260203392a3612722565b80518281101561214a57600503613ae557505051906060828051810103126104f85761310760208301614bba565b606061311560408501614bba565b93015161312c81856001600160a01b038516614861565b15611a955761314581856001600160a01b038516614708565b604051613151816145e2565b5f81527f000000000000000000000000000000000000000000000000000000000000000060208201525f60408201527f0000000000000000000000000000000000000000000000000000000000000000606082015260408201516040519060018060a01b038616602083015260018060a01b03881660408301526060820152606081526131dd816145e2565b6040516131e98161466b565b5f81525f6020820152670de0b6b3a7640000613212845161112783611116602089015193614d67565b049260606040820151910151915190608c82018211610e9a57608c8281016001600160fc1b0316830301610e9a5760405163f5d6ded760e01b815291602083600481606c5afa9283156104ed575f93613aa7575b50670de0b6b3a764000093611121856111a961328f9695611127608c611127970160041b614d4a565b049061329b82846152cf565b5f8051602061553383398151915254604051633fabe5a360e21b81529060a090829060049082906001600160a01b03165afa9081156104ed575f91613a5a575b50670de0b6b3a7640000810290808205670de0b6b3a76400001490151715610e9a575f6305f5e100820512613a3b57670de0b6b3a7640000916305f5e100613324920590614d75565b04906060818051810103126104f85761333f60208201614bba565b606061334d60408401614bba565b9201519280613a0c575061337b926112a991905f9080156119a957509283916001600160a01b0316906153a2565b9061339582335f8051602061557383398151915254614da2565b604051925f84525f60208501526040840152606083015260808201525f8051602061555383398151915260a03392a26001600160a01b0385163b156104f857604051636a256b2960e01b81526001600160a01b0384811660048301525f908290602490829084908b165af180156104ed576139fd575b5060405162dc326d60e71b81526001600160a01b0384811660048301526101a091908290829060249082908b165afa9182156104ed575f92613942575b505060405163055f575160e41b81526001600160a01b0385811660048301529096906080908890602490829085165afa9687156104ed575f976138e1575b508151875261349860208801516152f0565b6134a86113d760608501516152f0565b80808301125f8312908015821691151617610e9a576134c79101615319565b916134d560408901516152f0565b6134e561142760a08401516152f0565b80808301125f8312908015821691151617610e9a576135049101615319565b9061351561146460608b01516152f0565b80808301125f8312908015821691151617610e9a576135349101615319565b606089015260408801528160208801525f9160ff84511615613895575b50600160ff8451161461384b575b600260ff84511614613801575b600360ff845116146137d8575b602087015191606060408901519801519760c060a08601519501519160405163032bb44360e01b815260018060a01b038516600482015260208160248160018060a01b037f0000000000000000000000000000000000000000000000000000000000000000165afa9081156104ed575f9161379e575b501561051c576136226103b1307f0000000000000000000000000000000000000000000000000000000000000000614e5d565b99600161362e836150aa565b1461378d575b60208701516001600160a01b031680613787575060208401516001600160a01b0316925b6001600160a01b0386163b156104f8576040519663977b1f5f60e01b885260018060a01b038b16600489015260248801526044870152606486015260848501525f60a485015260018060a01b031660c48401525f8360e4818360018060a01b0387165af19081156104ed5761169b5f805160206154d38339815191529564e8d4a5100061371a60019c60209861372f976104de57506104a36103b1307f0000000000000000000000000000000000000000000000000000000000000000614e5d565b05806137755750848b8060a01b038a166150de565b60a087901b8790039485165f8181528884526040808220939097168082529284528681208682528452868120818155808a018290556002015594519384529392a3612722565b6116fb61378191615393565b8d61168c565b92613658565b61379961172083615393565b613634565b90506020813d6020116137d0575b816137b960209383614686565b810103126104f8576137ca90614854565b8d6135ef565b3d91506137ac565b9050608082015160016137ea8261540c565b036137fc5750600160ff1b5b90613579565b6137f6565b60808301805161381857505f5b606088015261356c565b61382560608901516152f0565b905180808301125f8312908015821691151617610e9a576138469101615319565b61380e565b60808301805161386257505f5b604088015261355f565b61386f60408901516152f0565b905180808301125f8312908015821691151617610e9a576138909101615319565b613858565b60808401908151155f146138b25750505f5b602088015289613551565b6138bb906152f0565b905180808301125f8312908015821691151617610e9a576138dc9101615319565b6138a7565b9096506080813d60801161393a575b816138fd60809383614686565b810103126104f857606060405191613914836145e2565b805183526020810151602084015260408101516040840152015160608201529589613486565b3d91506138f0565b90809250813d83116139f6575b6139598183614686565b810103126104f8576040519061396e826145fd565b805182526020810151602083015260408101516040830152606081015160608301526080810151608083015260a081015160a083015260c0808201519083015260e081015160e0830152610100808201519083015261012080820151908301526101408082015190830152610160808201519083015261018080910151908201528880613448565b503d61394f565b613a06906145cf565b8761340b565b5f198101908111610e9a5764e8d4a51000900490600182018211610e9a5761337b9360016112a993019061128d565b60405163280f944f60e11b81526305f5e1009091056004820152602490fd5b905060a0813d60a011613a9f575b81613a7560a09383614686565b810103126104f857613a86816152dc565b50613a986080602083015192016152dc565b508c6132db565b3d9150613a68565b9250906020833d602011613add575b81613ac360209383614686565b810103126104f85791519190670de0b6b3a7640000613266565b3d9150613ab6565b80518281101561214a57600603613d98575050518051810160c0828203126104f857613b1360208301614bba565b6040830151606084015191906001600160401b0383116104f85760208401603f8487010112156104f85784830160200151926001600160401b038411611d9f578360051b9060405194613b696020840187614686565b855260208501809260208801604082858c010101116104f8576040838a0101915b604082858c0101018310613d885750505050608086015160a08701519095906001600160401b0381116104f857611b9260c091602080613bce9501918b0101614bef565b95613bf9307f0000000000000000000000000000000000000000000000000000000000000000614e5d565b604051639fa6a6e360e01b81529096906020816004816001600160a01b038a165afa9081156104ed575f91613d56575b50805f19810111610e9a575f198101421015613d4e5750425b80821015613d4757505b6001600160a01b0385163b156104f8576040516301e298b960e41b815260606004820152955160648701819052869493608486019392915f905b808210613d2b57505050613cb185935f97959385936024850152600319848303016044850152614e09565b03926001600160a01b03165af19081613d1c575b50613ce15750613cd3614e2e565b90611cac5750600190612722565b6001929150611cf7613d17916109ca307f0000000000000000000000000000000000000000000000000000000000000000614e5d565b612722565b613d25906145cf565b86613cc5565b8251865289975060209586019590920191600190910190613c86565b9050613c4c565b5f1901613c42565b90506020813d602011613d80575b81613d7160209383614686565b810103126104f857518c613c29565b3d9150613d64565b8251815260209283019201613b8a565b80518281101561214a57600803613fb157505051906020828051810103126104f8576001600160a01b03918290613dd190602001614bba565b16916040519063032bb44360e01b8083528460048401526024926020818581867f0000000000000000000000000000000000000000000000000000000000000000165afa9081156104ed575f91613f77575b50159283613eef575b83613e65575b50505061051c57613d176001927f0000000000000000000000000000000000000000000000000000000000000000614c60565b60209293506040518094819382528760048301527f0000000000000000000000000000000000000000000000000000000000000000165afa9081156104ed575f91613eb5575b5015858080613e32565b90506020813d602011613ee7575b81613ed060209383614686565b810103126104f857613ee190614854565b85613eab565b3d9150613ec3565b92506040518181528560048201526020818581867f0000000000000000000000000000000000000000000000000000000000000000165afa9081156104ed575f91613f3d575b501592613e2c565b90506020813d602011613f6f575b81613f5860209383614686565b810103126104f857613f6990614854565b88613f35565b3d9150613f4b565b90506020813d602011613fa9575b81613f9260209383614686565b810103126104f857613fa390614854565b88613e23565b3d9150613f85565b519081101561214a57600a14613fcb575b50600190612722565b51906040828051810103126104f857613feb604061202660208501614bba565b60405163032bb44360e01b81526001600160a01b03938416600482018190529193602491906020908290849082907f0000000000000000000000000000000000000000000000000000000000000000165afa9081156104ed575f916140c5575b501561051c57604051636ebc51e160e01b815233600482015291602091839182905f905af19081156104ed575f91614092575b5060019261408c9133614b26565b90613fc2565b90506020813d6020116140bd575b816140ad60209383614686565b810103126104f85751600161407e565b3d91506140a0565b90506020813d6020116140f7575b816140e060209383614686565b810103126104f8576140f190614854565b8761404b565b3d91506140d3565b346104f8575f3660031901126104f8575f80516020615533833981519152546040516001600160a01b039091168152602090f35b346104f8575f3660031901126104f8576020604051608c8152f35b346104f8575f3660031901126104f8576040517f00000000000000000000000000000000000000000000000000000000000000006001600160a01b03168152602090f35b346104f8576141a0366144a8565b6001600160a01b039091169033821415806141d6575b61215e576141d4915f52600360205260405f205f8154915533614b26565b005b50815f52600260205260405f20335f5260205260ff60405f205416156141b6565b346104f8575f3660031901126104f8576040517f00000000000000000000000000000000000000000000000000000000000000006001600160a01b03168152602090f35b346104f8575f3660031901126104f857602060405160108152f35b346104f857614264366144a8565b335f52600260205260405f209160018060a01b031691825f5260205260405f209015159060ff1981541660ff83161790556040519081527f2738289d9deecdc30eb8ffc42876633caecca1ffa166e4efa89f408e17373a1a60203392a3005b346104f8575f3660031901126104f8576040517f00000000000000000000000000000000000000000000000000000000000000006001600160a01b03168152602090f35b346104f8575f3660031901126104f8576040517f00000000000000000000000000000000000000000000000000000000000000006001600160a01b03168152602090f35b346104f85760203660031901126104f8576001600160a01b0361436c614492565b165f526003602052602060405f2054604051908152f35b346104f8575f3660031901126104f8575f80516020615573833981519152546040516001600160a01b039091168152602090f35b346104f85760403660031901126104f8576143d0614492565b6001600160a01b0360243581811692908390036104f857165f52600260205260405f20905f52602052602060ff60405f2054166040519015158152f35b346104f8575f3660031901126104f8576040517f00000000000000000000000000000000000000000000000000000000000000006001600160a01b03168152602090f35b346104f8575f3660031901126104f8577f00000000000000000000000000000000000000000000000000000000000000006001600160a01b03168152602090f35b600435906001600160a01b03821682036104f857565b60409060031901126104f8576004356001600160a01b03811681036104f8579060243580151581036104f85790565b9181601f840112156104f8578235916001600160401b0383116104f8576020808501948460051b0101116104f857565b60609060031901126104f8576001600160a01b039060043582811681036104f8579160243590811681036104f8579060443590565b805182526020908101516001600160a01b0316910152565b6145b29092919260e060c061012083019560ff815116845260208101515f0b60208501526040810151604085015260608101516060850152608081015160808501526145a860a082015160a086019061453c565b015191019061453c565b565b604081019081106001600160401b03821117611d9f57604052565b6001600160401b038111611d9f57604052565b608081019081106001600160401b03821117611d9f57604052565b6101a081019081106001600160401b03821117611d9f57604052565b60e081019081106001600160401b03821117611d9f57604052565b61018081019081106001600160401b03821117611d9f57604052565b60c081019081106001600160401b03821117611d9f57604052565b602081019081106001600160401b03821117611d9f57604052565b601f909101601f19168101906001600160401b03821190821017611d9f57604052565b604051906146b682614619565b815f81525f60208201525f60408201525f60608201525f60808201526040516146de816145b4565b5f81525f602082015260a082015260c0604051916146fb836145b4565b5f83525f60208401520152565b9190916147136146a9565b506001600160a01b039081165f908152600160209081526040808320958416835294815284822093825292835283902061474b6146a9565b5083519161475883614634565b81549360ff8516958685528560081c5f0b808387015260018060401b038760101c169283838801528760501c60070b948560608901528860901c60070b968760808a015260018060d01b0319809a1660a08a015260018101549889916002848416918260c08501528d65ffffffffffff809660a01c169d8e60e08701521661010085015201549161016061012082019d8e8786169052610140830194868160a01c1686521691015286519a61480c8c6145b4565b8b52848b015251169851168351986148238a6145b4565b8952818901528251986148358a614619565b89528801528601526060850152608084015260a083015260c082015290565b519081151582036104f857565b918161486d9293614708565b604090818101511561499b5781516307dc0d1d60e41b81526001600160a01b03936020919082908290600490829089165afa8015614991575f9061495a575b6060915060048551809781936352bfe78960e01b8352165afa928315614951575f936148e2575b50506148df9250614cd3565b90565b909192506060843d606011614949575b816148ff60609383614686565b810103126104f857805191606083016001600160401b03811184821017611d9f5782528451835280850151908301526148df9361493d908201614854565b90820152905f806148d3565b3d91506148f2565b513d5f823e3d90fd5b508181813d831161498a575b6149708183614686565b810103126104f8575184811681036104f8576060906148ac565b503d614966565b84513d5f823e3d90fd5b5050505f90565b906149ac90614d88565b906001600160a01b03907f0000000000000000000000000000000000000000000000000000000000000000821680158015614ae7575b15614a9f57507f000000000000000000000000000000000000000000000000000000000000000091614a143084614e5d565b93817f00000000000000000000000000000000000000000000000000000000000000001690813b156104f8575f9160248392604051948593849263db006a7560e01b845260048401525af180156104ed57614a90575b503090821603614a7957505050565b614a8a6145b2936109ca3085614e5d565b91614da2565b614a99906145cf565b5f614a6a565b809392503b156104f857614acc925f9283604051809681958294637647691d60e01b845260048401614de3565b03925af180156104ed57614ade575b50565b6145b2906145cf565b506002614b20614b1a6112a9847f0000000000000000000000000000000000000000000000000000000000000000614e5d565b86615283565b146149e2565b9115614b35576149ac90614d88565b90614b426145b292614d88565b907f0000000000000000000000000000000000000000000000000000000000000000614da2565b6001600160401b038111611d9f57601f01601f191660200190565b929192614b9082614b69565b91614b9e6040519384614686565b8294818452818301116104f8578281602093845f960137010152565b51906001600160a01b03821682036104f857565b5f5b838110614bdf5750505f910152565b8181015183820152602001614bd0565b81601f820112156104f8578051614c0581614b69565b92614c136040519485614686565b818452602082840101116104f8576148df9160208085019101614bce565b91908260409103126104f857604051614c49816145b4565b6020614c5b8183958051855201614bba565b910152565b60405163095ea7b360e01b81526001600160a01b0392831660048201525f19602482015291602091839160449183915f91165af180156104ed57614ca15750565b6020813d602011614ccb575b81614cba60209383614686565b810103126104f857614adb90614854565b3d9150614cad565b604082015115614d445760208101515f0b60018114614d21575f1914614cf95750505f90565b60606020614d0c93015191015190615459565b8015908115614d19575090565b600191501490565b5060606020614d3593015191015190615459565b60028114908115614d19575090565b50505f90565b90670de0b6b3a764000091828102928184041490151715610e9a57565b905f911560011715610e9a57565b81810292918115918404141715610e9a57565b64e8d4a5100090818102918183041490151715610e9a5790565b60405163a9059cbb60e01b60208201526001600160a01b0392831660248201526044808201949094529283526145b2929190614ddd836145e2565b16615167565b9081526001600160a01b03909116602082015260400190565b91908203918211610e9a57565b90602091614e2281518092818552858086019101614bce565b601f01601f1916010190565b3d15614e58573d90614e3f82614b69565b91614e4d6040519384614686565b82523d5f602084013e565b606090565b6040516370a0823160e01b81526001600160a01b0392831660048201529160209183916024918391165afa9081156104ed575f91614e99575090565b90506020813d602011614ec0575b81614eb460209383614686565b810103126104f8575190565b3d9150614ea7565b805465ffffffffffff60a01b191660a09290921b65ffffffffffff60a01b16919091179055565b906112a981614f1e937f000000000000000000000000000000000000000000000000000000000000000061533b565b6001600160a01b037f0000000000000000000000000000000000000000000000000000000000000000811680158015614fdd575b15614fae57507f00000000000000000000000000000000000000000000000000000000000000001690813b156104f8575f9160248392604051948593849263140e25ad60e31b845260048401525af180156104ed57614ade5750565b8091503b156104f857604051629dd64160e51b8152915f918391829084908290614acc90309060048401614de3565b50600261501361500d837f0000000000000000000000000000000000000000000000000000000000000000614e5d565b85615283565b14614f52565b90911561504f57906112a981614f1e937f000000000000000000000000000000000000000000000000000000000000000061533b565b61505b6145b292614d88565b907f000000000000000000000000000000000000000000000000000000000000000061533b565b6001600160ff1b0381116150935790565b6024906040519062a07eb560e01b82526004820152fd5b5f81136150c0575f136150bb575f90565b5f1990565b50600190565b81810392915f138015828513169184121617610e9a57565b9190815180156151615781615117604092867f037af8589fe92360e800c649b0515b0b2bf77b577766ff952b17630c4ad25f47956153a2565b6020840160018060a01b03918183809351165f52600360205282615140865f20548951906152cf565b9151165f526003602052845f205561515a8451809761453c565b16941692a3565b50505050565b6040516151c4916001600160a01b0316615180826145b4565b5f806020958685527f5361666545524332303a206c6f772d6c6576656c2063616c6c206661696c656487860152868151910182855af16151be614e2e565b9161546a565b8051806151d057505050565b818391810103126104f857816151e69101614854565b156151ee5750565b6084906040519062461bcd60e51b82526004820152602a60248201527f5361666545524332303a204552433230206f7065726174696f6e20646964206e6044820152691bdd081cdd58d8d9595960b21b6064820152fd5b6001600160401b0390818111615263571061525f57600190565b5f90565b5050600290565b65ffffffffffff90818111615263571061525f57600190565b818111615263571061525f57600190565b8051909190156152a75750805190602001fd5b60405162461bcd60e51b8152602060048201529081906152cb906024830190614e09565b0390fd5b91908201809211610e9a57565b51906001600160501b03821682036104f857565b6001600160ff1b0381116153015790565b6024906040519063eecaa25d60e01b82526004820152fd5b5f81126153235790565b6024906040519063b02ef08760e01b82526004820152fd5b6040516323b872dd60e01b60208201526001600160a01b03928316602482015230604482015260648082019490945292835260a083019291906001600160401b03841183851017611d9f576145b29360405216615167565b5f811261539d5790565b5f0390565b6001600160a01b03908116926153b7906152f0565b92803b156104f8575f928360c492604051968795869463123dd9c560e31b865216600485015282198060248601528060448601526064850152820360848401528160a48401525af180156104ed57614ade5750565b60016001603f1b031990818113615263571261525f57600190565b5f8113615439575f1361525f57600190565b50600290565b60016001603f1b0390818113615263571261525f57600190565b818113615263571261525f57600190565b919290156154cc575081511561547e575090565b3b156154875790565b60405162461bcd60e51b815260206004820152601d60248201527f416464726573733a2063616c6c20746f206e6f6e2d636f6e74726163740000006044820152606490fd5b8261529456fe889f0643d669fbac53cbc7d1826992b9bce1fab5e9644034cffb9c0137fe9dd1d23ac4476ccf3eeb78c76d4b7bb113597bcd16c15d47656627ea6221d685ad73b32ded07b7d673202a5f35a959c39fc092a3d213bff00dadc295545acedf22d32b50211693ec91bcfe327771928b74a8f475c508d53e86fca4153bcf0f0e8776fa0333956d06e335c550bd5fc4ac9c003c6545e371331b1071fa4d5d8519d6c15b5cbfa852c5bd03e540eba853f8faf28a604a4d82bee1091096bfaea14d08c3a2646970667358221220d99333e27f7717778a94dedfce1a040ad2460cfac260a0533903b7c5b0047e1264736f6c63430008180033"
}